{
  "contractName": "Deeds",
  "abi": [
    {
      "inputs": [],
      "stateMutability": "nonpayable",
      "type": "constructor"
    },
    {
      "anonymous": false,
      "inputs": [
        {
          "indexed": true,
          "internalType": "address",
          "name": "owner",
          "type": "address"
        },
        {
          "indexed": true,
          "internalType": "address",
          "name": "approved",
          "type": "address"
        },
        {
          "indexed": true,
          "internalType": "uint256",
          "name": "tokenId",
          "type": "uint256"
        }
      ],
      "name": "Approval",
      "type": "event"
    },
    {
      "anonymous": false,
      "inputs": [
        {
          "indexed": true,
          "internalType": "address",
          "name": "owner",
          "type": "address"
        },
        {
          "indexed": true,
          "internalType": "address",
          "name": "operator",
          "type": "address"
        },
        {
          "indexed": false,
          "internalType": "bool",
          "name": "approved",
          "type": "bool"
        }
      ],
      "name": "ApprovalForAll",
      "type": "event"
    },
    {
      "anonymous": false,
      "inputs": [
        {
          "indexed": true,
          "internalType": "address",
          "name": "previousOwner",
          "type": "address"
        },
        {
          "indexed": true,
          "internalType": "address",
          "name": "newOwner",
          "type": "address"
        }
      ],
      "name": "OwnershipTransferred",
      "type": "event"
    },
    {
      "anonymous": false,
      "inputs": [
        {
          "indexed": true,
          "internalType": "address",
          "name": "from",
          "type": "address"
        },
        {
          "indexed": true,
          "internalType": "address",
          "name": "to",
          "type": "address"
        },
        {
          "indexed": true,
          "internalType": "uint256",
          "name": "tokenId",
          "type": "uint256"
        }
      ],
      "name": "Transfer",
      "type": "event"
    },
    {
      "inputs": [
        {
          "internalType": "address",
          "name": "to",
          "type": "address"
        },
        {
          "internalType": "uint256",
          "name": "tokenId",
          "type": "uint256"
        }
      ],
      "name": "approve",
      "outputs": [],
      "stateMutability": "nonpayable",
      "type": "function"
    },
    {
      "inputs": [
        {
          "internalType": "address",
          "name": "owner",
          "type": "address"
        }
      ],
      "name": "balanceOf",
      "outputs": [
        {
          "internalType": "uint256",
          "name": "",
          "type": "uint256"
        }
      ],
      "stateMutability": "view",
      "type": "function"
    },
    {
      "inputs": [
        {
          "internalType": "uint256",
          "name": "tokenId",
          "type": "uint256"
        }
      ],
      "name": "burn",
      "outputs": [],
      "stateMutability": "nonpayable",
      "type": "function"
    },
    {
      "inputs": [
        {
          "internalType": "uint256",
          "name": "tokenId",
          "type": "uint256"
        }
      ],
      "name": "getApproved",
      "outputs": [
        {
          "internalType": "address",
          "name": "",
          "type": "address"
        }
      ],
      "stateMutability": "view",
      "type": "function"
    },
    {
      "inputs": [
        {
          "internalType": "address",
          "name": "owner",
          "type": "address"
        },
        {
          "internalType": "address",
          "name": "operator",
          "type": "address"
        }
      ],
      "name": "isApprovedForAll",
      "outputs": [
        {
          "internalType": "bool",
          "name": "",
          "type": "bool"
        }
      ],
      "stateMutability": "view",
      "type": "function"
    },
    {
      "inputs": [],
      "name": "name",
      "outputs": [
        {
          "internalType": "string",
          "name": "",
          "type": "string"
        }
      ],
      "stateMutability": "view",
      "type": "function"
    },
    {
      "inputs": [],
      "name": "owner",
      "outputs": [
        {
          "internalType": "address",
          "name": "",
          "type": "address"
        }
      ],
      "stateMutability": "view",
      "type": "function"
    },
    {
      "inputs": [
        {
          "internalType": "uint256",
          "name": "tokenId",
          "type": "uint256"
        }
      ],
      "name": "ownerOf",
      "outputs": [
        {
          "internalType": "address",
          "name": "",
          "type": "address"
        }
      ],
      "stateMutability": "view",
      "type": "function"
    },
    {
      "inputs": [],
      "name": "renounceOwnership",
      "outputs": [],
      "stateMutability": "nonpayable",
      "type": "function"
    },
    {
      "inputs": [
        {
          "internalType": "address",
          "name": "from",
          "type": "address"
        },
        {
          "internalType": "address",
          "name": "to",
          "type": "address"
        },
        {
          "internalType": "uint256",
          "name": "tokenId",
          "type": "uint256"
        }
      ],
      "name": "safeTransferFrom",
      "outputs": [],
      "stateMutability": "nonpayable",
      "type": "function"
    },
    {
      "inputs": [
        {
          "internalType": "address",
          "name": "from",
          "type": "address"
        },
        {
          "internalType": "address",
          "name": "to",
          "type": "address"
        },
        {
          "internalType": "uint256",
          "name": "tokenId",
          "type": "uint256"
        },
        {
          "internalType": "bytes",
          "name": "data",
          "type": "bytes"
        }
      ],
      "name": "safeTransferFrom",
      "outputs": [],
      "stateMutability": "nonpayable",
      "type": "function"
    },
    {
      "inputs": [
        {
          "internalType": "address",
          "name": "operator",
          "type": "address"
        },
        {
          "internalType": "bool",
          "name": "approved",
          "type": "bool"
        }
      ],
      "name": "setApprovalForAll",
      "outputs": [],
      "stateMutability": "nonpayable",
      "type": "function"
    },
    {
      "inputs": [
        {
          "internalType": "bytes4",
          "name": "interfaceId",
          "type": "bytes4"
        }
      ],
      "name": "supportsInterface",
      "outputs": [
        {
          "internalType": "bool",
          "name": "",
          "type": "bool"
        }
      ],
      "stateMutability": "view",
      "type": "function"
    },
    {
      "inputs": [],
      "name": "symbol",
      "outputs": [
        {
          "internalType": "string",
          "name": "",
          "type": "string"
        }
      ],
      "stateMutability": "view",
      "type": "function"
    },
    {
      "inputs": [
        {
          "internalType": "uint256",
          "name": "tokenId",
          "type": "uint256"
        }
      ],
      "name": "tokenURI",
      "outputs": [
        {
          "internalType": "string",
          "name": "",
          "type": "string"
        }
      ],
      "stateMutability": "view",
      "type": "function"
    },
    {
      "inputs": [
        {
          "internalType": "address",
          "name": "from",
          "type": "address"
        },
        {
          "internalType": "address",
          "name": "to",
          "type": "address"
        },
        {
          "internalType": "uint256",
          "name": "tokenId",
          "type": "uint256"
        }
      ],
      "name": "transferFrom",
      "outputs": [],
      "stateMutability": "nonpayable",
      "type": "function"
    },
    {
      "inputs": [
        {
          "internalType": "address",
          "name": "newOwner",
          "type": "address"
        }
      ],
      "name": "transferOwnership",
      "outputs": [],
      "stateMutability": "nonpayable",
      "type": "function"
    },
    {
      "inputs": [
        {
          "internalType": "address",
          "name": "to",
          "type": "address"
        }
      ],
      "name": "safeMint",
      "outputs": [],
      "stateMutability": "nonpayable",
      "type": "function"
    }
  ],
  "bytecode": "0x60806040523480156200001157600080fd5b506040518060400160405280600d81526020017f4469676974616c204465656473000000000000000000000000000000000000008152506040518060400160405280600381526020017f4444730000000000000000000000000000000000000000000000000000000000815250816000908051906020019062000096929190620001a6565b508060019080519060200190620000af929190620001a6565b505050620000d2620000c6620000d860201b60201c565b620000e060201b60201c565b620002bb565b600033905090565b6000600660009054906101000a900473ffffffffffffffffffffffffffffffffffffffff16905081600660006101000a81548173ffffffffffffffffffffffffffffffffffffffff021916908373ffffffffffffffffffffffffffffffffffffffff1602179055508173ffffffffffffffffffffffffffffffffffffffff168173ffffffffffffffffffffffffffffffffffffffff167f8be0079c531659141344cd1fd0a4f28419497f9722a3daafe3b4186f6b6457e060405160405180910390a35050565b828054620001b49062000256565b90600052602060002090601f016020900481019282620001d8576000855562000224565b82601f10620001f357805160ff191683800117855562000224565b8280016001018555821562000224579182015b828111156200022357825182559160200191906001019062000206565b5b50905062000233919062000237565b5090565b5b808211156200025257600081600090555060010162000238565b5090565b600060028204905060018216806200026f57607f821691505b602082108114156200028657620002856200028c565b5b50919050565b7f4e487b7100000000000000000000000000000000000000000000000000000000600052602260045260246000fd5b612d1180620002cb6000396000f3fe608060405234801561001057600080fd5b50600436106101165760003560e01c806370a08231116100a2578063a22cb46511610071578063a22cb465146102cb578063b88d4fde146102e7578063c87b56dd14610303578063e985e9c514610333578063f2fde38b1461036357610116565b806370a0823114610255578063715018a6146102855780638da5cb5b1461028f57806395d89b41146102ad57610116565b806323b872dd116100e957806323b872dd146101b557806340d097c3146101d157806342842e0e146101ed57806342966c68146102095780636352211e1461022557610116565b806301ffc9a71461011b57806306fdde031461014b578063081812fc14610169578063095ea7b314610199575b600080fd5b610135600480360381019061013091906120cb565b61037f565b6040516101429190612468565b60405180910390f35b610153610461565b6040516101609190612483565b60405180910390f35b610183600480360381019061017e919061211d565b6104f3565b6040516101909190612401565b60405180910390f35b6101b360048036038101906101ae919061208f565b610539565b005b6101cf60048036038101906101ca9190611f89565b610651565b005b6101eb60048036038101906101e69190611f24565b6106b1565b005b61020760048036038101906102029190611f89565b6106df565b005b610223600480360381019061021e919061211d565b6106ff565b005b61023f600480360381019061023a919061211d565b61075b565b60405161024c9190612401565b60405180910390f35b61026f600480360381019061026a9190611f24565b6107e2565b60405161027c9190612645565b60405180910390f35b61028d61089a565b005b6102976108ae565b6040516102a49190612401565b60405180910390f35b6102b56108d8565b6040516102c29190612483565b60405180910390f35b6102e560048036038101906102e09190612053565b61096a565b005b61030160048036038101906102fc9190611fd8565b610980565b005b61031d6004803603810190610318919061211d565b6109e2565b60405161032a9190612483565b60405180910390f35b61034d60048036038101906103489190611f4d565b610a4a565b60405161035a9190612468565b60405180910390f35b61037d60048036038101906103789190611f24565b610ade565b005b60007f80ac58cd000000000000000000000000000000000000000000000000000000007bffffffffffffffffffffffffffffffffffffffffffffffffffffffff1916827bffffffffffffffffffffffffffffffffffffffffffffffffffffffff1916148061044a57507f5b5e139f000000000000000000000000000000000000000000000000000000007bffffffffffffffffffffffffffffffffffffffffffffffffffffffff1916827bffffffffffffffffffffffffffffffffffffffffffffffffffffffff1916145b8061045a575061045982610b62565b5b9050919050565b60606000805461047090612839565b80601f016020809104026020016040519081016040528092919081815260200182805461049c90612839565b80156104e95780601f106104be576101008083540402835291602001916104e9565b820191906000526020600020905b8154815290600101906020018083116104cc57829003601f168201915b5050505050905090565b60006104fe82610bcc565b6004600083815260200190815260200160002060009054906101000a900473ffffffffffffffffffffffffffffffffffffffff169050919050565b60006105448261075b565b90508073ffffffffffffffffffffffffffffffffffffffff168373ffffffffffffffffffffffffffffffffffffffff1614156105b5576040517f08c379a00000000000000000000000000000000000000000000000000000000081526004016105ac90612605565b60405180910390fd5b8073ffffffffffffffffffffffffffffffffffffffff166105d4610c17565b73ffffffffffffffffffffffffffffffffffffffff1614806106035750610602816105fd610c17565b610a4a565b5b610642576040517f08c379a000000000000000000000000000000000000000000000000000000000815260040161063990612625565b60405180910390fd5b61064c8383610c1f565b505050565b61066261065c610c17565b82610cd8565b6106a1576040517f08c379a0000000000000000000000000000000000000000000000000000000008152600401610698906124a5565b60405180910390fd5b6106ac838383610d6d565b505050565b6106b9611067565b60006106c560076110e5565b90506106d160076110f3565b6106db8282611109565b5050565b6106fa83838360405180602001604052806000815250610980565b505050565b61071061070a610c17565b82610cd8565b61074f576040517f08c379a0000000000000000000000000000000000000000000000000000000008152600401610746906124a5565b60405180910390fd5b61075881611127565b50565b60008061076783611275565b9050600073ffffffffffffffffffffffffffffffffffffffff168173ffffffffffffffffffffffffffffffffffffffff1614156107d9576040517f08c379a00000000000000000000000000000000000000000000000000000000081526004016107d0906125e5565b60405180910390fd5b80915050919050565b60008073ffffffffffffffffffffffffffffffffffffffff168273ffffffffffffffffffffffffffffffffffffffff161415610853576040517f08c379a000000000000000000000000000000000000000000000000000000000815260040161084a90612585565b60405180910390fd5b600360008373ffffffffffffffffffffffffffffffffffffffff1673ffffffffffffffffffffffffffffffffffffffff168152602001908152602001600020549050919050565b6108a2611067565b6108ac60006112b2565b565b6000600660009054906101000a900473ffffffffffffffffffffffffffffffffffffffff16905090565b6060600180546108e790612839565b80601f016020809104026020016040519081016040528092919081815260200182805461091390612839565b80156109605780601f1061093557610100808354040283529160200191610960565b820191906000526020600020905b81548152906001019060200180831161094357829003601f168201915b5050505050905090565b61097c610975610c17565b8383611378565b5050565b61099161098b610c17565b83610cd8565b6109d0576040517f08c379a00000000000000000000000000000000000000000000000000000000081526004016109c7906124a5565b60405180910390fd5b6109dc848484846114e5565b50505050565b60606109ed82610bcc565b60006109f7611541565b90506000815111610a175760405180602001604052806000815250610a42565b80610a2184611558565b604051602001610a329291906123dd565b6040516020818303038152906040525b915050919050565b6000600560008473ffffffffffffffffffffffffffffffffffffffff1673ffffffffffffffffffffffffffffffffffffffff16815260200190815260200160002060008373ffffffffffffffffffffffffffffffffffffffff1673ffffffffffffffffffffffffffffffffffffffff16815260200190815260200160002060009054906101000a900460ff16905092915050565b610ae6611067565b600073ffffffffffffffffffffffffffffffffffffffff168173ffffffffffffffffffffffffffffffffffffffff161415610b56576040517f08c379a0000000000000000000000000000000000000000000000000000000008152600401610b4d906124e5565b60405180910390fd5b610b5f816112b2565b50565b60007f01ffc9a7000000000000000000000000000000000000000000000000000000007bffffffffffffffffffffffffffffffffffffffffffffffffffffffff1916827bffffffffffffffffffffffffffffffffffffffffffffffffffffffff1916149050919050565b610bd58161167c565b610c14576040517f08c379a0000000000000000000000000000000000000000000000000000000008152600401610c0b906125e5565b60405180910390fd5b50565b600033905090565b816004600083815260200190815260200160002060006101000a81548173ffffffffffffffffffffffffffffffffffffffff021916908373ffffffffffffffffffffffffffffffffffffffff160217905550808273ffffffffffffffffffffffffffffffffffffffff16610c928361075b565b73ffffffffffffffffffffffffffffffffffffffff167f8c5be1e5ebec7d5bd14f71427d1e84f3dd0314c0f7b2291e5b200ac8c7c3b92560405160405180910390a45050565b600080610ce48361075b565b90508073ffffffffffffffffffffffffffffffffffffffff168473ffffffffffffffffffffffffffffffffffffffff161480610d265750610d258185610a4a565b5b80610d6457508373ffffffffffffffffffffffffffffffffffffffff16610d4c846104f3565b73ffffffffffffffffffffffffffffffffffffffff16145b91505092915050565b8273ffffffffffffffffffffffffffffffffffffffff16610d8d8261075b565b73ffffffffffffffffffffffffffffffffffffffff1614610de3576040517f08c379a0000000000000000000000000000000000000000000000000000000008152600401610dda90612505565b60405180910390fd5b600073ffffffffffffffffffffffffffffffffffffffff168273ffffffffffffffffffffffffffffffffffffffff161415610e53576040517f08c379a0000000000000000000000000000000000000000000000000000000008152600401610e4a90612545565b60405180910390fd5b610e6083838360016116bd565b8273ffffffffffffffffffffffffffffffffffffffff16610e808261075b565b73ffffffffffffffffffffffffffffffffffffffff1614610ed6576040517f08c379a0000000000000000000000000000000000000000000000000000000008152600401610ecd90612505565b60405180910390fd5b6004600082815260200190815260200160002060006101000a81549073ffffffffffffffffffffffffffffffffffffffff02191690556001600360008573ffffffffffffffffffffffffffffffffffffffff1673ffffffffffffffffffffffffffffffffffffffff168152602001908152602001600020600082825403925050819055506001600360008473ffffffffffffffffffffffffffffffffffffffff1673ffffffffffffffffffffffffffffffffffffffff16815260200190815260200160002060008282540192505081905550816002600083815260200190815260200160002060006101000a81548173ffffffffffffffffffffffffffffffffffffffff021916908373ffffffffffffffffffffffffffffffffffffffff160217905550808273ffffffffffffffffffffffffffffffffffffffff168473ffffffffffffffffffffffffffffffffffffffff167fddf252ad1be2c89b69c2b068fc378daa952ba7f163c4a11628f55a4df523b3ef60405160405180910390a461106283838360016117e3565b505050565b61106f610c17565b73ffffffffffffffffffffffffffffffffffffffff1661108d6108ae565b73ffffffffffffffffffffffffffffffffffffffff16146110e3576040517f08c379a00000000000000000000000000000000000000000000000000000000081526004016110da906125c5565b60405180910390fd5b565b600081600001549050919050565b6001816000016000828254019250508190555050565b6111238282604051806020016040528060008152506117e9565b5050565b60006111328261075b565b90506111428160008460016116bd565b61114b8261075b565b90506004600083815260200190815260200160002060006101000a81549073ffffffffffffffffffffffffffffffffffffffff02191690556001600360008373ffffffffffffffffffffffffffffffffffffffff1673ffffffffffffffffffffffffffffffffffffffff168152602001908152602001600020600082825403925050819055506002600083815260200190815260200160002060006101000a81549073ffffffffffffffffffffffffffffffffffffffff021916905581600073ffffffffffffffffffffffffffffffffffffffff168273ffffffffffffffffffffffffffffffffffffffff167fddf252ad1be2c89b69c2b068fc378daa952ba7f163c4a11628f55a4df523b3ef60405160405180910390a46112718160008460016117e3565b5050565b60006002600083815260200190815260200160002060009054906101000a900473ffffffffffffffffffffffffffffffffffffffff169050919050565b6000600660009054906101000a900473ffffffffffffffffffffffffffffffffffffffff16905081600660006101000a81548173ffffffffffffffffffffffffffffffffffffffff021916908373ffffffffffffffffffffffffffffffffffffffff1602179055508173ffffffffffffffffffffffffffffffffffffffff168173ffffffffffffffffffffffffffffffffffffffff167f8be0079c531659141344cd1fd0a4f28419497f9722a3daafe3b4186f6b6457e060405160405180910390a35050565b8173ffffffffffffffffffffffffffffffffffffffff168373ffffffffffffffffffffffffffffffffffffffff1614156113e7576040517f08c379a00000000000000000000000000000000000000000000000000000000081526004016113de90612565565b60405180910390fd5b80600560008573ffffffffffffffffffffffffffffffffffffffff1673ffffffffffffffffffffffffffffffffffffffff16815260200190815260200160002060008473ffffffffffffffffffffffffffffffffffffffff1673ffffffffffffffffffffffffffffffffffffffff16815260200190815260200160002060006101000a81548160ff0219169083151502179055508173ffffffffffffffffffffffffffffffffffffffff168373ffffffffffffffffffffffffffffffffffffffff167f17307eab39ab6107e8899845ad3d59bd9653f200f220920489ca2b5937696c31836040516114d89190612468565b60405180910390a3505050565b6114f0848484610d6d565b6114fc84848484611844565b61153b576040517f08c379a0000000000000000000000000000000000000000000000000000000008152600401611532906124c5565b60405180910390fd5b50505050565b606060405180602001604052806000815250905090565b606060006001611567846119db565b01905060008167ffffffffffffffff8111156115ac577f4e487b7100000000000000000000000000000000000000000000000000000000600052604160045260246000fd5b6040519080825280601f01601f1916602001820160405280156115de5781602001600182028036833780820191505090505b509050600082602001820190505b600115611671578080600190039150507f3031323334353637383961626364656600000000000000000000000000000000600a86061a8153600a858161165b577f4e487b7100000000000000000000000000000000000000000000000000000000600052601260045260246000fd5b049450600085141561166c57611671565b6115ec565b819350505050919050565b60008073ffffffffffffffffffffffffffffffffffffffff1661169e83611275565b73ffffffffffffffffffffffffffffffffffffffff1614159050919050565b60018111156117dd57600073ffffffffffffffffffffffffffffffffffffffff168473ffffffffffffffffffffffffffffffffffffffff16146117515780600360008673ffffffffffffffffffffffffffffffffffffffff1673ffffffffffffffffffffffffffffffffffffffff1681526020019081526020016000206000828254611749919061274f565b925050819055505b600073ffffffffffffffffffffffffffffffffffffffff168373ffffffffffffffffffffffffffffffffffffffff16146117dc5780600360008573ffffffffffffffffffffffffffffffffffffffff1673ffffffffffffffffffffffffffffffffffffffff16815260200190815260200160002060008282546117d491906126f9565b925050819055505b5b50505050565b50505050565b6117f38383611c12565b6118006000848484611844565b61183f576040517f08c379a0000000000000000000000000000000000000000000000000000000008152600401611836906124c5565b60405180910390fd5b505050565b60006118658473ffffffffffffffffffffffffffffffffffffffff16611e30565b156119ce578373ffffffffffffffffffffffffffffffffffffffff1663150b7a0261188e610c17565b8786866040518563ffffffff1660e01b81526004016118b0949392919061241c565b602060405180830381600087803b1580156118ca57600080fd5b505af19250505080156118fb57506040513d601f19601f820116820180604052508101906118f891906120f4565b60015b61197e573d806000811461192b576040519150601f19603f3d011682016040523d82523d6000602084013e611930565b606091505b50600081511415611976576040517f08c379a000000000000000000000000000000000000000000000000000000000815260040161196d906124c5565b60405180910390fd5b805181602001fd5b63150b7a0260e01b7bffffffffffffffffffffffffffffffffffffffffffffffffffffffff1916817bffffffffffffffffffffffffffffffffffffffffffffffffffffffff1916149150506119d3565b600190505b949350505050565b600080600090507a184f03e93ff9f4daa797ed6e38ed64bf6a1f0100000000000000008310611a5f577a184f03e93ff9f4daa797ed6e38ed64bf6a1f0100000000000000008381611a55577f4e487b7100000000000000000000000000000000000000000000000000000000600052601260045260246000fd5b0492506040810190505b6d04ee2d6d415b85acef81000000008310611ac2576d04ee2d6d415b85acef81000000008381611ab8577f4e487b7100000000000000000000000000000000000000000000000000000000600052601260045260246000fd5b0492506020810190505b662386f26fc100008310611b1757662386f26fc100008381611b0d577f4e487b7100000000000000000000000000000000000000000000000000000000600052601260045260246000fd5b0492506010810190505b6305f5e1008310611b66576305f5e1008381611b5c577f4e487b7100000000000000000000000000000000000000000000000000000000600052601260045260246000fd5b0492506008810190505b6127108310611bb1576127108381611ba7577f4e487b7100000000000000000000000000000000000000000000000000000000600052601260045260246000fd5b0492506004810190505b60648310611bfa5760648381611bf0577f4e487b7100000000000000000000000000000000000000000000000000000000600052601260045260246000fd5b0492506002810190505b600a8310611c09576001810190505b80915050919050565b600073ffffffffffffffffffffffffffffffffffffffff168273ffffffffffffffffffffffffffffffffffffffff161415611c82576040517f08c379a0000000000000000000000000000000000000000000000000000000008152600401611c79906125a5565b60405180910390fd5b611c8b8161167c565b15611ccb576040517f08c379a0000000000000000000000000000000000000000000000000000000008152600401611cc290612525565b60405180910390fd5b611cd96000838360016116bd565b611ce28161167c565b15611d22576040517f08c379a0000000000000000000000000000000000000000000000000000000008152600401611d1990612525565b60405180910390fd5b6001600360008473ffffffffffffffffffffffffffffffffffffffff1673ffffffffffffffffffffffffffffffffffffffff16815260200190815260200160002060008282540192505081905550816002600083815260200190815260200160002060006101000a81548173ffffffffffffffffffffffffffffffffffffffff021916908373ffffffffffffffffffffffffffffffffffffffff160217905550808273ffffffffffffffffffffffffffffffffffffffff16600073ffffffffffffffffffffffffffffffffffffffff167fddf252ad1be2c89b69c2b068fc378daa952ba7f163c4a11628f55a4df523b3ef60405160405180910390a4611e2c6000838360016117e3565b5050565b6000808273ffffffffffffffffffffffffffffffffffffffff163b119050919050565b6000611e66611e6184612685565b612660565b905082815260208101848484011115611e7e57600080fd5b611e898482856127f7565b509392505050565b600081359050611ea081612c7f565b92915050565b600081359050611eb581612c96565b92915050565b600081359050611eca81612cad565b92915050565b600081519050611edf81612cad565b92915050565b600082601f830112611ef657600080fd5b8135611f06848260208601611e53565b91505092915050565b600081359050611f1e81612cc4565b92915050565b600060208284031215611f3657600080fd5b6000611f4484828501611e91565b91505092915050565b60008060408385031215611f6057600080fd5b6000611f6e85828601611e91565b9250506020611f7f85828601611e91565b9150509250929050565b600080600060608486031215611f9e57600080fd5b6000611fac86828701611e91565b9350506020611fbd86828701611e91565b9250506040611fce86828701611f0f565b9150509250925092565b60008060008060808587031215611fee57600080fd5b6000611ffc87828801611e91565b945050602061200d87828801611e91565b935050604061201e87828801611f0f565b925050606085013567ffffffffffffffff81111561203b57600080fd5b61204787828801611ee5565b91505092959194509250565b6000806040838503121561206657600080fd5b600061207485828601611e91565b925050602061208585828601611ea6565b9150509250929050565b600080604083850312156120a257600080fd5b60006120b085828601611e91565b92505060206120c185828601611f0f565b9150509250929050565b6000602082840312156120dd57600080fd5b60006120eb84828501611ebb565b91505092915050565b60006020828403121561210657600080fd5b600061211484828501611ed0565b91505092915050565b60006020828403121561212f57600080fd5b600061213d84828501611f0f565b91505092915050565b61214f81612783565b82525050565b61215e81612795565b82525050565b600061216f826126b6565b61217981856126cc565b9350612189818560208601612806565b61219281612929565b840191505092915050565b60006121a8826126c1565b6121b281856126dd565b93506121c2818560208601612806565b6121cb81612929565b840191505092915050565b60006121e1826126c1565b6121eb81856126ee565b93506121fb818560208601612806565b80840191505092915050565b6000612214602d836126dd565b915061221f8261293a565b604082019050919050565b60006122376032836126dd565b915061224282612989565b604082019050919050565b600061225a6026836126dd565b9150612265826129d8565b604082019050919050565b600061227d6025836126dd565b915061228882612a27565b604082019050919050565b60006122a0601c836126dd565b91506122ab82612a76565b602082019050919050565b60006122c36024836126dd565b91506122ce82612a9f565b604082019050919050565b60006122e66019836126dd565b91506122f182612aee565b602082019050919050565b60006123096029836126dd565b915061231482612b17565b604082019050919050565b600061232c6020836126dd565b915061233782612b66565b602082019050919050565b600061234f6020836126dd565b915061235a82612b8f565b602082019050919050565b60006123726018836126dd565b915061237d82612bb8565b602082019050919050565b60006123956021836126dd565b91506123a082612be1565b604082019050919050565b60006123b8603d836126dd565b91506123c382612c30565b604082019050919050565b6123d7816127ed565b82525050565b60006123e982856121d6565b91506123f582846121d6565b91508190509392505050565b60006020820190506124166000830184612146565b92915050565b60006080820190506124316000830187612146565b61243e6020830186612146565b61244b60408301856123ce565b818103606083015261245d8184612164565b905095945050505050565b600060208201905061247d6000830184612155565b92915050565b6000602082019050818103600083015261249d818461219d565b905092915050565b600060208201905081810360008301526124be81612207565b9050919050565b600060208201905081810360008301526124de8161222a565b9050919050565b600060208201905081810360008301526124fe8161224d565b9050919050565b6000602082019050818103600083015261251e81612270565b9050919050565b6000602082019050818103600083015261253e81612293565b9050919050565b6000602082019050818103600083015261255e816122b6565b9050919050565b6000602082019050818103600083015261257e816122d9565b9050919050565b6000602082019050818103600083015261259e816122fc565b9050919050565b600060208201905081810360008301526125be8161231f565b9050919050565b600060208201905081810360008301526125de81612342565b9050919050565b600060208201905081810360008301526125fe81612365565b9050919050565b6000602082019050818103600083015261261e81612388565b9050919050565b6000602082019050818103600083015261263e816123ab565b9050919050565b600060208201905061265a60008301846123ce565b92915050565b600061266a61267b565b9050612676828261286b565b919050565b6000604051905090565b600067ffffffffffffffff8211156126a05761269f6128fa565b5b6126a982612929565b9050602081019050919050565b600081519050919050565b600081519050919050565b600082825260208201905092915050565b600082825260208201905092915050565b600081905092915050565b6000612704826127ed565b915061270f836127ed565b9250827fffffffffffffffffffffffffffffffffffffffffffffffffffffffffffffffff038211156127445761274361289c565b5b828201905092915050565b600061275a826127ed565b9150612765836127ed565b9250828210156127785761277761289c565b5b828203905092915050565b600061278e826127cd565b9050919050565b60008115159050919050565b60007fffffffff0000000000000000000000000000000000000000000000000000000082169050919050565b600073ffffffffffffffffffffffffffffffffffffffff82169050919050565b6000819050919050565b82818337600083830152505050565b60005b83811015612824578082015181840152602081019050612809565b83811115612833576000848401525b50505050565b6000600282049050600182168061285157607f821691505b60208210811415612865576128646128cb565b5b50919050565b61287482612929565b810181811067ffffffffffffffff82111715612893576128926128fa565b5b80604052505050565b7f4e487b7100000000000000000000000000000000000000000000000000000000600052601160045260246000fd5b7f4e487b7100000000000000000000000000000000000000000000000000000000600052602260045260246000fd5b7f4e487b7100000000000000000000000000000000000000000000000000000000600052604160045260246000fd5b6000601f19601f8301169050919050565b7f4552433732313a2063616c6c6572206973206e6f7420746f6b656e206f776e6560008201527f72206f7220617070726f76656400000000000000000000000000000000000000602082015250565b7f4552433732313a207472616e7366657220746f206e6f6e20455243373231526560008201527f63656976657220696d706c656d656e7465720000000000000000000000000000602082015250565b7f4f776e61626c653a206e6577206f776e657220697320746865207a65726f206160008201527f6464726573730000000000000000000000000000000000000000000000000000602082015250565b7f4552433732313a207472616e736665722066726f6d20696e636f72726563742060008201527f6f776e6572000000000000000000000000000000000000000000000000000000602082015250565b7f4552433732313a20746f6b656e20616c7265616479206d696e74656400000000600082015250565b7f4552433732313a207472616e7366657220746f20746865207a65726f2061646460008201527f7265737300000000000000000000000000000000000000000000000000000000602082015250565b7f4552433732313a20617070726f766520746f2063616c6c657200000000000000600082015250565b7f4552433732313a2061646472657373207a65726f206973206e6f74206120766160008201527f6c6964206f776e65720000000000000000000000000000000000000000000000602082015250565b7f4552433732313a206d696e7420746f20746865207a65726f2061646472657373600082015250565b7f4f776e61626c653a2063616c6c6572206973206e6f7420746865206f776e6572600082015250565b7f4552433732313a20696e76616c696420746f6b656e2049440000000000000000600082015250565b7f4552433732313a20617070726f76616c20746f2063757272656e74206f776e6560008201527f7200000000000000000000000000000000000000000000000000000000000000602082015250565b7f4552433732313a20617070726f76652063616c6c6572206973206e6f7420746f60008201527f6b656e206f776e6572206f7220617070726f76656420666f7220616c6c000000602082015250565b612c8881612783565b8114612c9357600080fd5b50565b612c9f81612795565b8114612caa57600080fd5b50565b612cb6816127a1565b8114612cc157600080fd5b50565b612ccd816127ed565b8114612cd857600080fd5b5056fea2646970667358221220644a377888f7d4696a8622f0a0abfb75c642a7a078f40d2e657c754ad8e0081364736f6c63430008030033",
  "immutableReferences": {},
  "source": "pragma solidity ^0.8.3;\r\nimport \"@openzeppelin/contracts/token/ERC721/ERC721.sol\";\r\nimport \"@openzeppelin/contracts/access/Ownable.sol\";\r\nimport \"@openzeppelin/contracts/token/ERC721/extensions/ERC721Burnable.sol\";\r\nimport \"@openzeppelin/contracts/utils/Counters.sol\";\r\nimport \"@openzeppelin/contracts/token/ERC20/ERC20.sol\";\r\nimport \"@openzeppelin/contracts/token/ERC20/IERC20.sol\";\r\nimport \"@openzeppelin/contracts/access/Ownable.sol\";\r\nimport \"@openzeppelin/contracts/token/ERC20/extensions/draft-ERC20Permit.sol\";\r\nimport \"@openzeppelin/contracts/token/ERC721/IERC721.sol\";\r\nimport \"@openzeppelin/contracts/token/ERC721/utils/ERC721Holder.sol\";\r\nimport \"@openzeppelin/contracts/access/AccessControl.sol\";\r\n\r\n\r\ncontract Deeds is ERC721, Ownable, ERC721Burnable {\r\n\r\n    using Counters for Counters.Counter;\r\n    Counters.Counter private _tokenIdCounter;\r\n\r\n    constructor() ERC721(\"Digital Deeds\", \"DDs\") {}\r\n\r\n    function safeMint(address to) public onlyOwner {\r\n        uint256 tokenId = _tokenIdCounter.current();\r\n        _tokenIdCounter.increment();\r\n        _safeMint(to, tokenId);\r\n    }\r\n}",
  "sourcePath": "C:\\Users\\batuh\\Desktop\\okul\\nodejs\\react_ogrenme\\edevlet\\contracts\\Deeds.sol",
  "compiler": {
    "name": "solc",
    "version": "0.8.3+commit.8d00100c.Emscripten.clang"
  },
  "schemaVersion": "3.4.10",
  "updatedAt": "2022-11-12T19:54:48.123Z",
  "devdoc": {
    "kind": "dev",
    "methods": {
      "approve(address,uint256)": {
        "details": "See {IERC721-approve}."
      },
      "balanceOf(address)": {
        "details": "See {IERC721-balanceOf}."
      },
      "burn(uint256)": {
        "details": "Burns `tokenId`. See {ERC721-_burn}. Requirements: - The caller must own `tokenId` or be an approved operator."
      },
      "getApproved(uint256)": {
        "details": "See {IERC721-getApproved}."
      },
      "isApprovedForAll(address,address)": {
        "details": "See {IERC721-isApprovedForAll}."
      },
      "name()": {
        "details": "See {IERC721Metadata-name}."
      },
      "owner()": {
        "details": "Returns the address of the current owner."
      },
      "ownerOf(uint256)": {
        "details": "See {IERC721-ownerOf}."
      },
      "renounceOwnership()": {
        "details": "Leaves the contract without owner. It will not be possible to call `onlyOwner` functions anymore. Can only be called by the current owner. NOTE: Renouncing ownership will leave the contract without an owner, thereby removing any functionality that is only available to the owner."
      },
      "safeTransferFrom(address,address,uint256)": {
        "details": "See {IERC721-safeTransferFrom}."
      },
      "safeTransferFrom(address,address,uint256,bytes)": {
        "details": "See {IERC721-safeTransferFrom}."
      },
      "setApprovalForAll(address,bool)": {
        "details": "See {IERC721-setApprovalForAll}."
      },
      "supportsInterface(bytes4)": {
        "details": "See {IERC165-supportsInterface}."
      },
      "symbol()": {
        "details": "See {IERC721Metadata-symbol}."
      },
      "tokenURI(uint256)": {
        "details": "See {IERC721Metadata-tokenURI}."
      },
      "transferFrom(address,address,uint256)": {
        "details": "See {IERC721-transferFrom}."
      },
      "transferOwnership(address)": {
        "details": "Transfers ownership of the contract to a new account (`newOwner`). Can only be called by the current owner."
      }
    },
    "version": 1
  },
  "userdoc": {
    "kind": "user",
    "methods": {},
    "version": 1
  }
}