{
  "contractName": "HelloWorld",
  "abi": [
    {
      "inputs": [],
      "name": "greet",
      "outputs": [
        {
          "internalType": "string",
          "name": "",
          "type": "string"
        }
      ],
      "stateMutability": "view",
      "type": "function",
      "constant": true
    },
    {
      "inputs": [],
      "name": "test",
      "outputs": [],
      "stateMutability": "nonpayable",
      "type": "function"
    }
  ],
  "bytecode": "0x60806040526040518060400160405280600c81526020017f48656c6c6f20576f726c642100000000000000000000000000000000000000008152506000908051906020019061004f929190610062565b5034801561005c57600080fd5b50610166565b82805461006e90610105565b90600052602060002090601f01602090048101928261009057600085556100d7565b82601f106100a957805160ff19168380011785556100d7565b828001600101855582156100d7579182015b828111156100d65782518255916020019190600101906100bb565b5b5090506100e491906100e8565b5090565b5b808211156101015760008160009055506001016100e9565b5090565b6000600282049050600182168061011d57607f821691505b6020821081141561013157610130610137565b5b50919050565b7f4e487b7100000000000000000000000000000000000000000000000000000000600052602260045260246000fd5b6102e6806101756000396000f3fe608060405234801561001057600080fd5b50600436106100365760003560e01c8063cfae32171461003b578063f8a8fd6d14610059575b600080fd5b610043610063565b60405161005091906101ad565b60405180910390f35b6100616100f1565b005b600080546100709061023e565b80601f016020809104026020016040519081016040528092919081815260200182805461009c9061023e565b80156100e95780601f106100be576101008083540402835291602001916100e9565b820191906000526020600020905b8154815290600101906020018083116100cc57829003601f168201915b505050505081565b6000610132576040517f08c379a0000000000000000000000000000000000000000000000000000000008152600401610129906101cf565b60405180910390fd5b565b600061013f826101ef565b61014981856101fa565b935061015981856020860161020b565b6101628161029f565b840191505092915050565b600061017a6004836101fa565b91507f6d617474000000000000000000000000000000000000000000000000000000006000830152602082019050919050565b600060208201905081810360008301526101c78184610134565b905092915050565b600060208201905081810360008301526101e88161016d565b9050919050565b600081519050919050565b600082825260208201905092915050565b60005b8381101561022957808201518184015260208101905061020e565b83811115610238576000848401525b50505050565b6000600282049050600182168061025657607f821691505b6020821081141561026a57610269610270565b5b50919050565b7f4e487b7100000000000000000000000000000000000000000000000000000000600052602260045260246000fd5b6000601f19601f830116905091905056fea2646970667358221220c12c4b557992e13bcec6df53ee66957a9d011afe9bad3af163853362b6760d3064736f6c63430008000033",
  "immutableReferences": {},
  "source": "// SPDX-License-Identifier: MIT\r\n// compiler version must be greater than or equal to 0.8.13 and less than 0.9.0\r\npragma solidity ^0.8.0;\r\n\r\ncontract HelloWorld {\r\n    string public greet = \"Hello World!\";\r\n\r\n    function test () public {\r\n        require(false, \"matt\");\r\n    }\r\n}\r\n",
  "sourcePath": "C:\\Users\\batuh\\Desktop\\okul\\nodejs\\react_ogrenme\\edevlet\\contracts\\Test.sol",
  "compiler": {
    "name": "solc",
    "version": "0.8.0+commit.c7dfd78e.Emscripten.clang"
  },
  "schemaVersion": "3.4.10",
  "updatedAt": "2022-11-11T20:37:33.970Z",
  "networkType": "ethereum",
  "devdoc": {
    "kind": "dev",
    "methods": {},
    "version": 1
  },
  "userdoc": {
    "kind": "user",
    "methods": {},
    "version": 1
  }
}