{
  "contractName": "MainContract",
  "abi": [
    {
      "inputs": [
        {
          "internalType": "uint256",
          "name": "",
          "type": "uint256"
        }
      ],
      "name": "Sales",
      "outputs": [
        {
          "internalType": "address",
          "name": "",
          "type": "address"
        }
      ],
      "stateMutability": "view",
      "type": "function",
      "constant": true
    },
    {
      "inputs": [],
      "name": "saleId",
      "outputs": [
        {
          "internalType": "uint256",
          "name": "",
          "type": "uint256"
        }
      ],
      "stateMutability": "view",
      "type": "function",
      "constant": true
    },
    {
      "inputs": [
        {
          "internalType": "address",
          "name": "stakeholderAddr",
          "type": "address"
        },
        {
          "internalType": "uint256",
          "name": "percentage",
          "type": "uint256"
        },
        {
          "internalType": "uint256",
          "name": "fiyat",
          "type": "uint256"
        }
      ],
      "name": "createElection",
      "outputs": [],
      "stateMutability": "nonpayable",
      "type": "function"
    }
  ],
  "bytecode": "0x60806040526000805534801561001457600080fd5b50612363806100246000396000f3fe60806040523480156200001157600080fd5b5060043610620000465760003560e01c806314470dd5146200004b5780633529280b146200006b578063c84c038714620000a1575b600080fd5b620000696004803603810190620000639190620001eb565b620000c3565b005b62000089600480360381019062000083919062000241565b62000176565b6040516200009891906200028f565b60405180910390f35b620000ab620001a9565b604051620000ba9190620002e9565b60405180910390f35b6000838383604051620000d690620001af565b620000e493929190620002ac565b604051809103906000f08015801562000101573d6000803e3d6000fd5b50905080600160008054815260200190815260200160002060006101000a81548173ffffffffffffffffffffffffffffffffffffffff021916908373ffffffffffffffffffffffffffffffffffffffff1602179055506000808154809291906200016b9062000344565b919050555050505050565b60016020528060005260406000206000915054906101000a900473ffffffffffffffffffffffffffffffffffffffff1681565b60005481565b611f3880620003f683390190565b600081359050620001ce81620003c1565b92915050565b600081359050620001e581620003db565b92915050565b6000806000606084860312156200020157600080fd5b60006200021186828701620001bd565b93505060206200022486828701620001d4565b92505060406200023786828701620001d4565b9150509250925092565b6000602082840312156200025457600080fd5b60006200026484828501620001d4565b91505092915050565b620002788162000306565b82525050565b62000289816200033a565b82525050565b6000602082019050620002a660008301846200026d565b92915050565b6000606082019050620002c360008301866200026d565b620002d260208301856200027e565b620002e160408301846200027e565b949350505050565b60006020820190506200030060008301846200027e565b92915050565b600062000313826200031a565b9050919050565b600073ffffffffffffffffffffffffffffffffffffffff82169050919050565b6000819050919050565b600062000351826200033a565b91507fffffffffffffffffffffffffffffffffffffffffffffffffffffffffffffffff82141562000387576200038662000392565b5b600182019050919050565b7f4e487b7100000000000000000000000000000000000000000000000000000000600052601160045260246000fd5b620003cc8162000306565b8114620003d857600080fd5b50565b620003e6816200033a565b8114620003f257600080fd5b5056fe60806040523480156200001157600080fd5b5060405162001f3838038062001f388339818101604052810190620000379190620003c3565b620000697f6270edb7c868f86fda4adedba75108201087268ea345934db8bad688e1feb91b336200023260201b60201c565b60405180608001604052803373ffffffffffffffffffffffffffffffffffffffff1681526020016000151581526020018473ffffffffffffffffffffffffffffffffffffffff16815260200183815250600160008201518160000160006101000a81548173ffffffffffffffffffffffffffffffffffffffff021916908373ffffffffffffffffffffffffffffffffffffffff16021790555060208201518160000160146101000a81548160ff02191690831515021790555060408201518160010160006101000a81548173ffffffffffffffffffffffffffffffffffffffff021916908373ffffffffffffffffffffffffffffffffffffffff160217905550606082015181600201559050506040518060600160405280600073ffffffffffffffffffffffffffffffffffffffff1681526020016000151581526020016000815250600660008201518160000160006101000a81548173ffffffffffffffffffffffffffffffffffffffff021916908373ffffffffffffffffffffffffffffffffffffffff16021790555060208201518160000160146101000a81548160ff02191690831515021790555060408201518160010155905050806009819055505050506200048b565b6200024482826200032360201b60201c565b6200031f57600160008084815260200190815260200160002060000160008373ffffffffffffffffffffffffffffffffffffffff1673ffffffffffffffffffffffffffffffffffffffff16815260200190815260200160002060006101000a81548160ff021916908315150217905550620002c46200038d60201b60201c565b73ffffffffffffffffffffffffffffffffffffffff168173ffffffffffffffffffffffffffffffffffffffff16837f2f8788117e7eff1d82e926ec794901d17c78024a50270940304540a733656f0d60405160405180910390a45b5050565b600080600084815260200190815260200160002060000160008373ffffffffffffffffffffffffffffffffffffffff1673ffffffffffffffffffffffffffffffffffffffff16815260200190815260200160002060009054906101000a900460ff16905092915050565b600033905090565b600081519050620003a68162000457565b92915050565b600081519050620003bd8162000471565b92915050565b600080600060608486031215620003d957600080fd5b6000620003e98682870162000395565b9350506020620003fc86828701620003ac565b92505060406200040f86828701620003ac565b9150509250925092565b600062000426826200042d565b9050919050565b600073ffffffffffffffffffffffffffffffffffffffff82169050919050565b6000819050919050565b620004628162000419565b81146200046e57600080fd5b50565b6200047c816200044d565b81146200048857600080fd5b50565b611a9d806200049b6000396000f3fe6080604052600436106100f35760003560e01c806391b7f5ed1161008a578063bbf8980311610059578063bbf8980314610304578063c83e4cac1461032d578063d547741f14610349578063e40ae8b214610372576100f3565b806391b7f5ed1461024857806391d148541461027157806398d5fdca146102ae578063a217fddf146102d9576100f3565b80632f2ff15d116100c65780632f2ff15d146101b457806336568abe146101dd5780636146195414610206578063893d20e81461021d576100f3565b806301ffc9a7146100f85780630334828d146101355780630b2accb21461014c578063248a9ca314610177575b600080fd5b34801561010457600080fd5b5061011f600480360381019061011a91906112c1565b610389565b60405161012c9190611572565b60405180910390f35b34801561014157600080fd5b5061014a610403565b005b34801561015857600080fd5b50610161610475565b60405161016e919061166a565b60405180910390f35b34801561018357600080fd5b5061019e6004803603810190610199919061125c565b610482565b6040516101ab919061158d565b60405180910390f35b3480156101c057600080fd5b506101db60048036038101906101d69190611285565b6104a1565b005b3480156101e957600080fd5b5061020460048036038101906101ff9190611285565b6104c2565b005b34801561021257600080fd5b5061021b610545565b005b34801561022957600080fd5b5061023261073a565b60405161023f91906114f7565b60405180910390f35b34801561025457600080fd5b5061026f600480360381019061026a91906112ea565b610767565b005b34801561027d57600080fd5b5061029860048036038101906102939190611285565b610814565b6040516102a59190611572565b60405180910390f35b3480156102ba57600080fd5b506102c361087e565b6040516102d0919061166a565b60405180910390f35b3480156102e557600080fd5b506102ee610888565b6040516102fb919061158d565b60405180910390f35b34801561031057600080fd5b5061032b6004803603810190610326919061120a565b61088f565b005b610347600480360381019061034291906112ea565b6109d6565b005b34801561035557600080fd5b50610370600480360381019061036b9190611285565b610a86565b005b34801561037e57600080fd5b50610387610aa7565b005b60007f7965db0b000000000000000000000000000000000000000000000000000000007bffffffffffffffffffffffffffffffffffffffffffffffffffffffff1916827bffffffffffffffffffffffffffffffffffffffffffffffffffffffff191614806103fc57506103fb82610bae565b5b9050919050565b7faae5e377c2c46a0d48b44f7db4bf8fb93b44c7d62ee9b5e146abdd52e520671061042d81610c18565b6000600460000160006101000a81548173ffffffffffffffffffffffffffffffffffffffff021916908373ffffffffffffffffffffffffffffffffffffffff16021790555050565b6000600160020154905090565b6000806000838152602001908152602001600020600101549050919050565b6104aa82610482565b6104b381610c18565b6104bd8383610c2c565b505050565b6104ca610d0c565b73ffffffffffffffffffffffffffffffffffffffff168173ffffffffffffffffffffffffffffffffffffffff1614610537576040517f08c379a000000000000000000000000000000000000000000000000000000000815260040161052e9061164a565b60405180910390fd5b6105418282610d14565b5050565b600160000160149054906101000a900460ff16610597576040517f08c379a000000000000000000000000000000000000000000000000000000000815260040161058e9061160a565b60405180910390fd5b600460000160149054906101000a900460ff166105e9576040517f08c379a00000000000000000000000000000000000000000000000000000000081526004016105e0906115ea565b60405180910390fd5b6009546004600101541015610633576040517f08c379a000000000000000000000000000000000000000000000000000000000815260040161062a9061162a565b60405180910390fd5b60006001800160009054906101000a900473ffffffffffffffffffffffffffffffffffffffff1690508073ffffffffffffffffffffffffffffffffffffffff166323b872dd600160000160009054906101000a900473ffffffffffffffffffffffffffffffffffffffff16600460000160009054906101000a900473ffffffffffffffffffffffffffffffffffffffff1660016040518463ffffffff1660e01b81526004016106e493929190611512565b602060405180830381600087803b1580156106fe57600080fd5b505af1158015610712573d6000803e3d6000fd5b505050506040513d601f19601f820116820180604052508101906107369190611233565b5050565b6000600160000160009054906101000a900473ffffffffffffffffffffffffffffffffffffffff16905090565b7f6270edb7c868f86fda4adedba75108201087268ea345934db8bad688e1feb91b61079181610c18565b816009819055506000600160000160146101000a81548160ff0219169083151502179055506000600460000160146101000a81548160ff0219169083151502179055506000600660000160146101000a81548160ff0219169083151502179055506000600860000160146101000a81548160ff0219169083151502179055505050565b600080600084815260200190815260200160002060000160008373ffffffffffffffffffffffffffffffffffffffff1673ffffffffffffffffffffffffffffffffffffffff16815260200190815260200160002060009054906101000a900460ff16905092915050565b6000600954905090565b6000801b81565b7f6270edb7c868f86fda4adedba75108201087268ea345934db8bad688e1feb91b6108b981610c18565b6108e37feeccd0cdb44235955432f589255f62b95683f64165b40b022d338b8009cf79b683610c2c565b60405180606001604052808373ffffffffffffffffffffffffffffffffffffffff1681526020016000151581526020016000815250600460008201518160000160006101000a81548173ffffffffffffffffffffffffffffffffffffffff021916908373ffffffffffffffffffffffffffffffffffffffff16021790555060208201518160000160146101000a81548160ff0219169083151502179055506040820151816001015590505081600460000160006101000a81548173ffffffffffffffffffffffffffffffffffffffff021916908373ffffffffffffffffffffffffffffffffffffffff1602179055505050565b7feeccd0cdb44235955432f589255f62b95683f64165b40b022d338b8009cf79b6610a0081610c18565b600160000160149054906101000a900460ff16610a52576040517f08c379a0000000000000000000000000000000000000000000000000000000008152600401610a499061160a565b60405180910390fd5b816004600101819055506001600460000160146101000a81548160ff021916908315150217905550610a82610545565b5050565b610a8f82610482565b610a9881610c18565b610aa28383610d14565b505050565b7f6270edb7c868f86fda4adedba75108201087268ea345934db8bad688e1feb91b610ad181610c18565b60018060000160146101000a81548160ff02191690831515021790555060006001800160009054906101000a900473ffffffffffffffffffffffffffffffffffffffff1690508073ffffffffffffffffffffffffffffffffffffffff1663095ea7b3306001600201546040518363ffffffff1660e01b8152600401610b57929190611549565b602060405180830381600087803b158015610b7157600080fd5b505af1158015610b85573d6000803e3d6000fd5b505050506040513d601f19601f82011682018060405250810190610ba99190611233565b505050565b60007f01ffc9a7000000000000000000000000000000000000000000000000000000007bffffffffffffffffffffffffffffffffffffffffffffffffffffffff1916827bffffffffffffffffffffffffffffffffffffffffffffffffffffffff1916149050919050565b610c2981610c24610d0c565b610df5565b50565b610c368282610814565b610d0857600160008084815260200190815260200160002060000160008373ffffffffffffffffffffffffffffffffffffffff1673ffffffffffffffffffffffffffffffffffffffff16815260200190815260200160002060006101000a81548160ff021916908315150217905550610cad610d0c565b73ffffffffffffffffffffffffffffffffffffffff168173ffffffffffffffffffffffffffffffffffffffff16837f2f8788117e7eff1d82e926ec794901d17c78024a50270940304540a733656f0d60405160405180910390a45b5050565b600033905090565b610d1e8282610814565b15610df157600080600084815260200190815260200160002060000160008373ffffffffffffffffffffffffffffffffffffffff1673ffffffffffffffffffffffffffffffffffffffff16815260200190815260200160002060006101000a81548160ff021916908315150217905550610d96610d0c565b73ffffffffffffffffffffffffffffffffffffffff168173ffffffffffffffffffffffffffffffffffffffff16837ff6391f5c32d9c69d2a47ea670b442974b53935d1edc7fd64eb21e047a839171b60405160405180910390a45b5050565b610dff8282610814565b610e7657610e0c81610e7a565b610e1a8360001c6020610ea7565b604051602001610e2b9291906114bd565b6040516020818303038152906040526040517f08c379a0000000000000000000000000000000000000000000000000000000008152600401610e6d91906115a8565b60405180910390fd5b5050565b6060610ea08273ffffffffffffffffffffffffffffffffffffffff16601460ff16610ea7565b9050919050565b606060006002836002610eba9190611702565b610ec491906116ac565b67ffffffffffffffff811115610f03577f4e487b7100000000000000000000000000000000000000000000000000000000600052604160045260246000fd5b6040519080825280601f01601f191660200182016040528015610f355781602001600182028036833780820191505090505b5090507f300000000000000000000000000000000000000000000000000000000000000081600081518110610f93577f4e487b7100000000000000000000000000000000000000000000000000000000600052603260045260246000fd5b60200101907effffffffffffffffffffffffffffffffffffffffffffffffffffffffffffff1916908160001a9053507f78000000000000000000000000000000000000000000000000000000000000008160018151811061101d577f4e487b7100000000000000000000000000000000000000000000000000000000600052603260045260246000fd5b60200101907effffffffffffffffffffffffffffffffffffffffffffffffffffffffffffff1916908160001a9053506000600184600261105d9190611702565b61106791906116ac565b90505b6001811115611153577f3031323334353637383961626364656600000000000000000000000000000000600f8616601081106110cf577f4e487b7100000000000000000000000000000000000000000000000000000000600052603260045260246000fd5b1a60f81b82828151811061110c577f4e487b7100000000000000000000000000000000000000000000000000000000600052603260045260246000fd5b60200101907effffffffffffffffffffffffffffffffffffffffffffffffffffffffffffff1916908160001a905350600485901c94508061114c9061181f565b905061106a565b5060008414611197576040517f08c379a000000000000000000000000000000000000000000000000000000000815260040161118e906115ca565b60405180910390fd5b8091505092915050565b6000813590506111b0816119f4565b92915050565b6000815190506111c581611a0b565b92915050565b6000813590506111da81611a22565b92915050565b6000813590506111ef81611a39565b92915050565b60008135905061120481611a50565b92915050565b60006020828403121561121c57600080fd5b600061122a848285016111a1565b91505092915050565b60006020828403121561124557600080fd5b6000611253848285016111b6565b91505092915050565b60006020828403121561126e57600080fd5b600061127c848285016111cb565b91505092915050565b6000806040838503121561129857600080fd5b60006112a6858286016111cb565b92505060206112b7858286016111a1565b9150509250929050565b6000602082840312156112d357600080fd5b60006112e1848285016111e0565b91505092915050565b6000602082840312156112fc57600080fd5b600061130a848285016111f5565b91505092915050565b61131c8161175c565b82525050565b61132b8161176e565b82525050565b61133a8161177a565b82525050565b611349816117da565b82525050565b600061135a82611685565b6113648185611690565b93506113748185602086016117ec565b61137d81611878565b840191505092915050565b600061139382611685565b61139d81856116a1565b93506113ad8185602086016117ec565b80840191505092915050565b60006113c6602083611690565b91506113d182611889565b602082019050919050565b60006113e9601683611690565b91506113f4826118b2565b602082019050919050565b600061140c601c83611690565b9150611417826118db565b602082019050919050565b600061142f603683611690565b915061143a82611904565b604082019050919050565b60006114526017836116a1565b915061145d82611953565b601782019050919050565b60006114756011836116a1565b91506114808261197c565b601182019050919050565b6000611498602f83611690565b91506114a3826119a5565b604082019050919050565b6114b7816117d0565b82525050565b60006114c882611445565b91506114d48285611388565b91506114df82611468565b91506114eb8284611388565b91508190509392505050565b600060208201905061150c6000830184611313565b92915050565b60006060820190506115276000830186611313565b6115346020830185611313565b6115416040830184611340565b949350505050565b600060408201905061155e6000830185611313565b61156b60208301846114ae565b9392505050565b60006020820190506115876000830184611322565b92915050565b60006020820190506115a26000830184611331565b92915050565b600060208201905081810360008301526115c2818461134f565b905092915050565b600060208201905081810360008301526115e3816113b9565b9050919050565b60006020820190508181036000830152611603816113dc565b9050919050565b60006020820190508181036000830152611623816113ff565b9050919050565b6000602082019050818103600083015261164381611422565b9050919050565b600060208201905081810360008301526116638161148b565b9050919050565b600060208201905061167f60008301846114ae565b92915050565b600081519050919050565b600082825260208201905092915050565b600081905092915050565b60006116b7826117d0565b91506116c2836117d0565b9250827fffffffffffffffffffffffffffffffffffffffffffffffffffffffffffffffff038211156116f7576116f6611849565b5b828201905092915050565b600061170d826117d0565b9150611718836117d0565b9250817fffffffffffffffffffffffffffffffffffffffffffffffffffffffffffffffff048311821515161561175157611750611849565b5b828202905092915050565b6000611767826117b0565b9050919050565b60008115159050919050565b6000819050919050565b60007fffffffff0000000000000000000000000000000000000000000000000000000082169050919050565b600073ffffffffffffffffffffffffffffffffffffffff82169050919050565b6000819050919050565b60006117e5826117d0565b9050919050565b60005b8381101561180a5780820151818401526020810190506117ef565b83811115611819576000848401525b50505050565b600061182a826117d0565b9150600082141561183e5761183d611849565b5b600182039050919050565b7f4e487b7100000000000000000000000000000000000000000000000000000000600052601160045260246000fd5b6000601f19601f8301169050919050565b7f537472696e67733a20686578206c656e67746820696e73756666696369656e74600082015250565b7f416c696369206f6e61796920676572656b69796f722e00000000000000000000600082015250565b7f5461707520736168696269206f6e61796920676572656b69796f722e00000000600082015250565b7f416c6963696e696e207965746b696c656e64697264696769207061726120747560008201527f746172692079657465726c6920646567696c6469722e00000000000000000000602082015250565b7f416363657373436f6e74726f6c3a206163636f756e7420000000000000000000600082015250565b7f206973206d697373696e6720726f6c6520000000000000000000000000000000600082015250565b7f416363657373436f6e74726f6c3a2063616e206f6e6c792072656e6f756e636560008201527f20726f6c657320666f722073656c660000000000000000000000000000000000602082015250565b6119fd8161175c565b8114611a0857600080fd5b50565b611a148161176e565b8114611a1f57600080fd5b50565b611a2b8161177a565b8114611a3657600080fd5b50565b611a4281611784565b8114611a4d57600080fd5b50565b611a59816117d0565b8114611a6457600080fd5b5056fea2646970667358221220495eb7795d22bb800bd787e117ca30891f3c983bf8e5bd41bed9cfbb3545ec2c64736f6c63430008030033a2646970667358221220119786c742ac51dd590993eb925ea85d672c955a052d76eded4a3ec4870e099d64736f6c63430008030033",
  "immutableReferences": {},
  "source": "// SPDX-License-Identifier: UNLICENSED\r\npragma solidity ^0.8.3;\r\n\r\nimport './Sale.sol';\r\n\r\ncontract MainContract {\r\n  uint public saleId = 0;\r\n  mapping (uint => address) public Sales;\r\n\r\n  function createElection (address stakeholderAddr, uint percentage, uint fiyat) public {\r\n    Sale election = new Sale(stakeholderAddr, percentage, fiyat);\r\n    Sales[saleId] = address(election);\r\n    saleId++;\r\n  }\r\n}",
  "sourcePath": "C:\\Users\\batuh\\Desktop\\okul\\nodejs\\react_ogrenme\\edevlet\\contracts\\MainContract.sol",
  "compiler": {
    "name": "solc",
    "version": "0.8.3+commit.8d00100c.Emscripten.clang"
  },
  "schemaVersion": "3.4.10",
  "updatedAt": "2022-11-12T22:03:50.509Z",
  "networkType": "ethereum",
  "devdoc": {
    "kind": "dev",
    "methods": {},
    "version": 1
  },
  "userdoc": {
    "kind": "user",
    "methods": {},
    "version": 1
  }
}