{
  "contractName": "Sale",
  "abi": [
    {
      "inputs": [
        {
          "internalType": "address",
          "name": "_stakeholderAddress",
          "type": "address"
        },
        {
          "internalType": "uint256",
          "name": "_percentage",
          "type": "uint256"
        }
      ],
      "stateMutability": "nonpayable",
      "type": "constructor"
    },
    {
      "anonymous": false,
      "inputs": [
        {
          "indexed": true,
          "internalType": "bytes32",
          "name": "role",
          "type": "bytes32"
        },
        {
          "indexed": true,
          "internalType": "bytes32",
          "name": "previousAdminRole",
          "type": "bytes32"
        },
        {
          "indexed": true,
          "internalType": "bytes32",
          "name": "newAdminRole",
          "type": "bytes32"
        }
      ],
      "name": "RoleAdminChanged",
      "type": "event"
    },
    {
      "anonymous": false,
      "inputs": [
        {
          "indexed": true,
          "internalType": "bytes32",
          "name": "role",
          "type": "bytes32"
        },
        {
          "indexed": true,
          "internalType": "address",
          "name": "account",
          "type": "address"
        },
        {
          "indexed": true,
          "internalType": "address",
          "name": "sender",
          "type": "address"
        }
      ],
      "name": "RoleGranted",
      "type": "event"
    },
    {
      "anonymous": false,
      "inputs": [
        {
          "indexed": true,
          "internalType": "bytes32",
          "name": "role",
          "type": "bytes32"
        },
        {
          "indexed": true,
          "internalType": "address",
          "name": "account",
          "type": "address"
        },
        {
          "indexed": true,
          "internalType": "address",
          "name": "sender",
          "type": "address"
        }
      ],
      "name": "RoleRevoked",
      "type": "event"
    },
    {
      "inputs": [],
      "name": "DEFAULT_ADMIN_ROLE",
      "outputs": [
        {
          "internalType": "bytes32",
          "name": "",
          "type": "bytes32"
        }
      ],
      "stateMutability": "view",
      "type": "function"
    },
    {
      "inputs": [
        {
          "internalType": "bytes32",
          "name": "role",
          "type": "bytes32"
        }
      ],
      "name": "getRoleAdmin",
      "outputs": [
        {
          "internalType": "bytes32",
          "name": "",
          "type": "bytes32"
        }
      ],
      "stateMutability": "view",
      "type": "function"
    },
    {
      "inputs": [
        {
          "internalType": "bytes32",
          "name": "role",
          "type": "bytes32"
        },
        {
          "internalType": "address",
          "name": "account",
          "type": "address"
        }
      ],
      "name": "grantRole",
      "outputs": [],
      "stateMutability": "nonpayable",
      "type": "function"
    },
    {
      "inputs": [
        {
          "internalType": "bytes32",
          "name": "role",
          "type": "bytes32"
        },
        {
          "internalType": "address",
          "name": "account",
          "type": "address"
        }
      ],
      "name": "hasRole",
      "outputs": [
        {
          "internalType": "bool",
          "name": "",
          "type": "bool"
        }
      ],
      "stateMutability": "view",
      "type": "function"
    },
    {
      "inputs": [
        {
          "internalType": "bytes32",
          "name": "role",
          "type": "bytes32"
        },
        {
          "internalType": "address",
          "name": "account",
          "type": "address"
        }
      ],
      "name": "renounceRole",
      "outputs": [],
      "stateMutability": "nonpayable",
      "type": "function"
    },
    {
      "inputs": [
        {
          "internalType": "bytes32",
          "name": "role",
          "type": "bytes32"
        },
        {
          "internalType": "address",
          "name": "account",
          "type": "address"
        }
      ],
      "name": "revokeRole",
      "outputs": [],
      "stateMutability": "nonpayable",
      "type": "function"
    },
    {
      "inputs": [
        {
          "internalType": "bytes4",
          "name": "interfaceId",
          "type": "bytes4"
        }
      ],
      "name": "supportsInterface",
      "outputs": [
        {
          "internalType": "bool",
          "name": "",
          "type": "bool"
        }
      ],
      "stateMutability": "view",
      "type": "function"
    },
    {
      "inputs": [
        {
          "internalType": "uint256",
          "name": "_deedPrice",
          "type": "uint256"
        }
      ],
      "name": "setPrice",
      "outputs": [],
      "stateMutability": "nonpayable",
      "type": "function"
    },
    {
      "inputs": [
        {
          "internalType": "address",
          "name": "_buyer",
          "type": "address"
        }
      ],
      "name": "addBuyer",
      "outputs": [],
      "stateMutability": "nonpayable",
      "type": "function"
    },
    {
      "inputs": [],
      "name": "removeBuyer",
      "outputs": [],
      "stateMutability": "nonpayable",
      "type": "function"
    },
    {
      "inputs": [],
      "name": "approveOwner",
      "outputs": [],
      "stateMutability": "nonpayable",
      "type": "function"
    },
    {
      "inputs": [
        {
          "internalType": "uint256",
          "name": "_price",
          "type": "uint256"
        }
      ],
      "name": "approveBuyer",
      "outputs": [],
      "stateMutability": "payable",
      "type": "function"
    },
    {
      "inputs": [],
      "name": "execute",
      "outputs": [],
      "stateMutability": "nonpayable",
      "type": "function"
    },
    {
      "inputs": [],
      "name": "getAddress",
      "outputs": [
        {
          "internalType": "address",
          "name": "",
          "type": "address"
        }
      ],
      "stateMutability": "view",
      "type": "function"
    }
  ],
  "bytecode": "0x60806040523480156200001157600080fd5b5060405162001e7c38038062001e7c8339818101604052810190620000379190620003bb565b620000697f6270edb7c868f86fda4adedba75108201087268ea345934db8bad688e1feb91b336200022a60201b60201c565b60405180608001604052803373ffffffffffffffffffffffffffffffffffffffff1681526020016000151581526020018373ffffffffffffffffffffffffffffffffffffffff16815260200182815250600160008201518160000160006101000a81548173ffffffffffffffffffffffffffffffffffffffff021916908373ffffffffffffffffffffffffffffffffffffffff16021790555060208201518160000160146101000a81548160ff02191690831515021790555060408201518160010160006101000a81548173ffffffffffffffffffffffffffffffffffffffff021916908373ffffffffffffffffffffffffffffffffffffffff160217905550606082015181600201559050506040518060600160405280600073ffffffffffffffffffffffffffffffffffffffff1681526020016000151581526020016000815250600660008201518160000160006101000a81548173ffffffffffffffffffffffffffffffffffffffff021916908373ffffffffffffffffffffffffffffffffffffffff16021790555060208201518160000160146101000a81548160ff0219169083151502179055506040820151816001015590505050506200046e565b6200023c82826200031b60201b60201c565b6200031757600160008084815260200190815260200160002060000160008373ffffffffffffffffffffffffffffffffffffffff1673ffffffffffffffffffffffffffffffffffffffff16815260200190815260200160002060006101000a81548160ff021916908315150217905550620002bc6200038560201b60201c565b73ffffffffffffffffffffffffffffffffffffffff168173ffffffffffffffffffffffffffffffffffffffff16837f2f8788117e7eff1d82e926ec794901d17c78024a50270940304540a733656f0d60405160405180910390a45b5050565b600080600084815260200190815260200160002060000160008373ffffffffffffffffffffffffffffffffffffffff1673ffffffffffffffffffffffffffffffffffffffff16815260200190815260200160002060009054906101000a900460ff16905092915050565b600033905090565b6000815190506200039e816200043a565b92915050565b600081519050620003b58162000454565b92915050565b60008060408385031215620003cf57600080fd5b6000620003df858286016200038d565b9250506020620003f285828601620003a4565b9150509250929050565b6000620004098262000410565b9050919050565b600073ffffffffffffffffffffffffffffffffffffffff82169050919050565b6000819050919050565b6200044581620003fc565b81146200045157600080fd5b50565b6200045f8162000430565b81146200046b57600080fd5b50565b6119fe806200047e6000396000f3fe6080604052600436106100dd5760003560e01c806391b7f5ed1161007f578063bbf8980311610059578063bbf8980314610298578063c83e4cac146102c1578063d547741f146102dd578063e40ae8b214610306576100dd565b806391b7f5ed1461020757806391d1485414610230578063a217fddf1461026d576100dd565b80632f2ff15d116100bb5780632f2ff15d1461017357806336568abe1461019c57806338cc4831146101c557806361461954146101f0576100dd565b806301ffc9a7146100e25780630334828d1461011f578063248a9ca314610136575b600080fd5b3480156100ee57600080fd5b506101096004803603810190610104919061123d565b61031d565b60405161011691906114ee565b60405180910390f35b34801561012b57600080fd5b50610134610397565b005b34801561014257600080fd5b5061015d600480360381019061015891906111d8565b610409565b60405161016a9190611509565b60405180910390f35b34801561017f57600080fd5b5061019a60048036038101906101959190611201565b610428565b005b3480156101a857600080fd5b506101c360048036038101906101be9190611201565b610449565b005b3480156101d157600080fd5b506101da6104cc565b6040516101e79190611473565b60405180910390f35b3480156101fc57600080fd5b506102056104f8565b005b34801561021357600080fd5b5061022e60048036038101906102299190611266565b6106ed565b005b34801561023c57600080fd5b5061025760048036038101906102529190611201565b61079a565b60405161026491906114ee565b60405180910390f35b34801561027957600080fd5b50610282610804565b60405161028f9190611509565b60405180910390f35b3480156102a457600080fd5b506102bf60048036038101906102ba9190611186565b61080b565b005b6102db60048036038101906102d69190611266565b610952565b005b3480156102e957600080fd5b5061030460048036038101906102ff9190611201565b610a02565b005b34801561031257600080fd5b5061031b610a23565b005b60007f7965db0b000000000000000000000000000000000000000000000000000000007bffffffffffffffffffffffffffffffffffffffffffffffffffffffff1916827bffffffffffffffffffffffffffffffffffffffffffffffffffffffff19161480610390575061038f82610b2a565b5b9050919050565b7faae5e377c2c46a0d48b44f7db4bf8fb93b44c7d62ee9b5e146abdd52e52067106103c181610b94565b6000600460000160006101000a81548173ffffffffffffffffffffffffffffffffffffffff021916908373ffffffffffffffffffffffffffffffffffffffff16021790555050565b6000806000838152602001908152602001600020600101549050919050565b61043182610409565b61043a81610b94565b6104448383610ba8565b505050565b610451610c88565b73ffffffffffffffffffffffffffffffffffffffff168173ffffffffffffffffffffffffffffffffffffffff16146104be576040517f08c379a00000000000000000000000000000000000000000000000000000000081526004016104b5906115c6565b60405180910390fd5b6104c88282610c90565b5050565b60006001800160009054906101000a900473ffffffffffffffffffffffffffffffffffffffff16905090565b600160000160149054906101000a900460ff1661054a576040517f08c379a000000000000000000000000000000000000000000000000000000000815260040161054190611586565b60405180910390fd5b600460000160149054906101000a900460ff1661059c576040517f08c379a000000000000000000000000000000000000000000000000000000000815260040161059390611566565b60405180910390fd5b60095460046001015410156105e6576040517f08c379a00000000000000000000000000000000000000000000000000000000081526004016105dd906115a6565b60405180910390fd5b60006001800160009054906101000a900473ffffffffffffffffffffffffffffffffffffffff1690508073ffffffffffffffffffffffffffffffffffffffff166323b872dd600160000160009054906101000a900473ffffffffffffffffffffffffffffffffffffffff16600460000160009054906101000a900473ffffffffffffffffffffffffffffffffffffffff1660016040518463ffffffff1660e01b81526004016106979392919061148e565b602060405180830381600087803b1580156106b157600080fd5b505af11580156106c5573d6000803e3d6000fd5b505050506040513d601f19601f820116820180604052508101906106e991906111af565b5050565b7f6270edb7c868f86fda4adedba75108201087268ea345934db8bad688e1feb91b61071781610b94565b816009819055506000600160000160146101000a81548160ff0219169083151502179055506000600460000160146101000a81548160ff0219169083151502179055506000600660000160146101000a81548160ff0219169083151502179055506000600860000160146101000a81548160ff0219169083151502179055505050565b600080600084815260200190815260200160002060000160008373ffffffffffffffffffffffffffffffffffffffff1673ffffffffffffffffffffffffffffffffffffffff16815260200190815260200160002060009054906101000a900460ff16905092915050565b6000801b81565b7f6270edb7c868f86fda4adedba75108201087268ea345934db8bad688e1feb91b61083581610b94565b61085f7feeccd0cdb44235955432f589255f62b95683f64165b40b022d338b8009cf79b683610ba8565b60405180606001604052808373ffffffffffffffffffffffffffffffffffffffff1681526020016000151581526020016000815250600460008201518160000160006101000a81548173ffffffffffffffffffffffffffffffffffffffff021916908373ffffffffffffffffffffffffffffffffffffffff16021790555060208201518160000160146101000a81548160ff0219169083151502179055506040820151816001015590505081600460000160006101000a81548173ffffffffffffffffffffffffffffffffffffffff021916908373ffffffffffffffffffffffffffffffffffffffff1602179055505050565b7feeccd0cdb44235955432f589255f62b95683f64165b40b022d338b8009cf79b661097c81610b94565b600160000160149054906101000a900460ff166109ce576040517f08c379a00000000000000000000000000000000000000000000000000000000081526004016109c590611586565b60405180910390fd5b816004600101819055506001600460000160146101000a81548160ff0219169083151502179055506109fe6104f8565b5050565b610a0b82610409565b610a1481610b94565b610a1e8383610c90565b505050565b7f6270edb7c868f86fda4adedba75108201087268ea345934db8bad688e1feb91b610a4d81610b94565b60018060000160146101000a81548160ff02191690831515021790555060006001800160009054906101000a900473ffffffffffffffffffffffffffffffffffffffff1690508073ffffffffffffffffffffffffffffffffffffffff1663095ea7b3306001600201546040518363ffffffff1660e01b8152600401610ad39291906114c5565b602060405180830381600087803b158015610aed57600080fd5b505af1158015610b01573d6000803e3d6000fd5b505050506040513d601f19601f82011682018060405250810190610b2591906111af565b505050565b60007f01ffc9a7000000000000000000000000000000000000000000000000000000007bffffffffffffffffffffffffffffffffffffffffffffffffffffffff1916827bffffffffffffffffffffffffffffffffffffffffffffffffffffffff1916149050919050565b610ba581610ba0610c88565b610d71565b50565b610bb2828261079a565b610c8457600160008084815260200190815260200160002060000160008373ffffffffffffffffffffffffffffffffffffffff1673ffffffffffffffffffffffffffffffffffffffff16815260200190815260200160002060006101000a81548160ff021916908315150217905550610c29610c88565b73ffffffffffffffffffffffffffffffffffffffff168173ffffffffffffffffffffffffffffffffffffffff16837f2f8788117e7eff1d82e926ec794901d17c78024a50270940304540a733656f0d60405160405180910390a45b5050565b600033905090565b610c9a828261079a565b15610d6d57600080600084815260200190815260200160002060000160008373ffffffffffffffffffffffffffffffffffffffff1673ffffffffffffffffffffffffffffffffffffffff16815260200190815260200160002060006101000a81548160ff021916908315150217905550610d12610c88565b73ffffffffffffffffffffffffffffffffffffffff168173ffffffffffffffffffffffffffffffffffffffff16837ff6391f5c32d9c69d2a47ea670b442974b53935d1edc7fd64eb21e047a839171b60405160405180910390a45b5050565b610d7b828261079a565b610df257610d8881610df6565b610d968360001c6020610e23565b604051602001610da7929190611439565b6040516020818303038152906040526040517f08c379a0000000000000000000000000000000000000000000000000000000008152600401610de99190611524565b60405180910390fd5b5050565b6060610e1c8273ffffffffffffffffffffffffffffffffffffffff16601460ff16610e23565b9050919050565b606060006002836002610e369190611663565b610e40919061160d565b67ffffffffffffffff811115610e7f577f4e487b7100000000000000000000000000000000000000000000000000000000600052604160045260246000fd5b6040519080825280601f01601f191660200182016040528015610eb15781602001600182028036833780820191505090505b5090507f300000000000000000000000000000000000000000000000000000000000000081600081518110610f0f577f4e487b7100000000000000000000000000000000000000000000000000000000600052603260045260246000fd5b60200101907effffffffffffffffffffffffffffffffffffffffffffffffffffffffffffff1916908160001a9053507f780000000000000000000000000000000000000000000000000000000000000081600181518110610f99577f4e487b7100000000000000000000000000000000000000000000000000000000600052603260045260246000fd5b60200101907effffffffffffffffffffffffffffffffffffffffffffffffffffffffffffff1916908160001a90535060006001846002610fd99190611663565b610fe3919061160d565b90505b60018111156110cf577f3031323334353637383961626364656600000000000000000000000000000000600f86166010811061104b577f4e487b7100000000000000000000000000000000000000000000000000000000600052603260045260246000fd5b1a60f81b828281518110611088577f4e487b7100000000000000000000000000000000000000000000000000000000600052603260045260246000fd5b60200101907effffffffffffffffffffffffffffffffffffffffffffffffffffffffffffff1916908160001a905350600485901c9450806110c890611780565b9050610fe6565b5060008414611113576040517f08c379a000000000000000000000000000000000000000000000000000000000815260040161110a90611546565b60405180910390fd5b8091505092915050565b60008135905061112c81611955565b92915050565b6000815190506111418161196c565b92915050565b60008135905061115681611983565b92915050565b60008135905061116b8161199a565b92915050565b600081359050611180816119b1565b92915050565b60006020828403121561119857600080fd5b60006111a68482850161111d565b91505092915050565b6000602082840312156111c157600080fd5b60006111cf84828501611132565b91505092915050565b6000602082840312156111ea57600080fd5b60006111f884828501611147565b91505092915050565b6000806040838503121561121457600080fd5b600061122285828601611147565b92505060206112338582860161111d565b9150509250929050565b60006020828403121561124f57600080fd5b600061125d8482850161115c565b91505092915050565b60006020828403121561127857600080fd5b600061128684828501611171565b91505092915050565b611298816116bd565b82525050565b6112a7816116cf565b82525050565b6112b6816116db565b82525050565b6112c58161173b565b82525050565b60006112d6826115e6565b6112e081856115f1565b93506112f081856020860161174d565b6112f9816117d9565b840191505092915050565b600061130f826115e6565b6113198185611602565b935061132981856020860161174d565b80840191505092915050565b60006113426020836115f1565b915061134d826117ea565b602082019050919050565b60006113656016836115f1565b915061137082611813565b602082019050919050565b6000611388601c836115f1565b91506113938261183c565b602082019050919050565b60006113ab6036836115f1565b91506113b682611865565b604082019050919050565b60006113ce601783611602565b91506113d9826118b4565b601782019050919050565b60006113f1601183611602565b91506113fc826118dd565b601182019050919050565b6000611414602f836115f1565b915061141f82611906565b604082019050919050565b61143381611731565b82525050565b6000611444826113c1565b91506114508285611304565b915061145b826113e4565b91506114678284611304565b91508190509392505050565b6000602082019050611488600083018461128f565b92915050565b60006060820190506114a3600083018661128f565b6114b0602083018561128f565b6114bd60408301846112bc565b949350505050565b60006040820190506114da600083018561128f565b6114e7602083018461142a565b9392505050565b6000602082019050611503600083018461129e565b92915050565b600060208201905061151e60008301846112ad565b92915050565b6000602082019050818103600083015261153e81846112cb565b905092915050565b6000602082019050818103600083015261155f81611335565b9050919050565b6000602082019050818103600083015261157f81611358565b9050919050565b6000602082019050818103600083015261159f8161137b565b9050919050565b600060208201905081810360008301526115bf8161139e565b9050919050565b600060208201905081810360008301526115df81611407565b9050919050565b600081519050919050565b600082825260208201905092915050565b600081905092915050565b600061161882611731565b915061162383611731565b9250827fffffffffffffffffffffffffffffffffffffffffffffffffffffffffffffffff03821115611658576116576117aa565b5b828201905092915050565b600061166e82611731565b915061167983611731565b9250817fffffffffffffffffffffffffffffffffffffffffffffffffffffffffffffffff04831182151516156116b2576116b16117aa565b5b828202905092915050565b60006116c882611711565b9050919050565b60008115159050919050565b6000819050919050565b60007fffffffff0000000000000000000000000000000000000000000000000000000082169050919050565b600073ffffffffffffffffffffffffffffffffffffffff82169050919050565b6000819050919050565b600061174682611731565b9050919050565b60005b8381101561176b578082015181840152602081019050611750565b8381111561177a576000848401525b50505050565b600061178b82611731565b9150600082141561179f5761179e6117aa565b5b600182039050919050565b7f4e487b7100000000000000000000000000000000000000000000000000000000600052601160045260246000fd5b6000601f19601f8301169050919050565b7f537472696e67733a20686578206c656e67746820696e73756666696369656e74600082015250565b7f416c696369206f6e61796920676572656b69796f722e00000000000000000000600082015250565b7f5461707520736168696269206f6e61796920676572656b69796f722e00000000600082015250565b7f416c6963696e696e207965746b696c656e64697264696769207061726120747560008201527f746172692079657465726c6920646567696c6469722e00000000000000000000602082015250565b7f416363657373436f6e74726f6c3a206163636f756e7420000000000000000000600082015250565b7f206973206d697373696e6720726f6c6520000000000000000000000000000000600082015250565b7f416363657373436f6e74726f6c3a2063616e206f6e6c792072656e6f756e636560008201527f20726f6c657320666f722073656c660000000000000000000000000000000000602082015250565b61195e816116bd565b811461196957600080fd5b50565b611975816116cf565b811461198057600080fd5b50565b61198c816116db565b811461199757600080fd5b50565b6119a3816116e5565b81146119ae57600080fd5b50565b6119ba81611731565b81146119c557600080fd5b5056fea2646970667358221220ace7fc609a926deab76a46d25d3446f1593630407cb5e277a768c3bccc81effd64736f6c63430008030033",
  "immutableReferences": {},
  "source": "pragma solidity ^0.8.3;\r\nimport \"@openzeppelin/contracts/token/ERC721/ERC721.sol\";\r\nimport \"@openzeppelin/contracts/access/Ownable.sol\";\r\nimport \"@openzeppelin/contracts/token/ERC721/extensions/ERC721Burnable.sol\";\r\nimport \"@openzeppelin/contracts/utils/Counters.sol\";\r\nimport \"@openzeppelin/contracts/token/ERC20/ERC20.sol\";\r\nimport \"@openzeppelin/contracts/token/ERC20/IERC20.sol\";\r\nimport \"@openzeppelin/contracts/access/Ownable.sol\";\r\nimport \"@openzeppelin/contracts/token/ERC20/extensions/draft-ERC20Permit.sol\";\r\nimport \"@openzeppelin/contracts/token/ERC721/IERC721.sol\";\r\nimport \"@openzeppelin/contracts/token/ERC721/utils/ERC721Holder.sol\";\r\nimport \"@openzeppelin/contracts/access/AccessControl.sol\";\r\n\r\ncontract Sale is AccessControl {\r\n\r\n    struct Owner {\r\n        address addr;\r\n        bool approval;\r\n        address stakeholderAddress;\r\n        uint percentage;\r\n    }\r\n\r\n    struct Middleman {\r\n        address addr;\r\n        bool approval;\r\n    }\r\n\r\n    struct Buyer {\r\n        address addr;\r\n        bool approval;\r\n        uint paymentAmount;\r\n    }\r\n\r\n    Owner owner;\r\n    Buyer buyer;\r\n    Buyer bank;\r\n    Middleman middleman;\r\n    uint deedPrice;\r\n\r\n    bytes32 private constant OWNER = keccak256(\"OWNER\");\r\n    bytes32 private constant MIDDLEMAN = keccak256(\"MIDDLEMAN\");\r\n    bytes32 private constant BUYER = keccak256(\"BUYER\");\r\n    bytes32 private constant BANK = keccak256(\"BANK\");\r\n\r\n    constructor(address _stakeholderAddress, uint _percentage) {\r\n        _grantRole(OWNER, msg.sender);\r\n        owner = Owner(msg.sender, false, _stakeholderAddress, _percentage);\r\n        bank = Buyer(address(0), false, 0);\r\n    }\r\n\r\n    function setPrice(uint256 _deedPrice) public onlyRole(OWNER){\r\n        deedPrice = _deedPrice;\r\n        owner.approval = false;\r\n        buyer.approval = false;\r\n        bank.approval = false;\r\n        middleman.approval = false;\r\n    }\r\n\r\n    function addBuyer(address _buyer) public onlyRole(OWNER) {\r\n        _grantRole(BUYER, _buyer);\r\n        buyer = Buyer(_buyer, false, 0);\r\n        buyer.addr = _buyer;\r\n    }\r\n\r\n    function removeBuyer() public onlyRole(MIDDLEMAN) {\r\n        buyer.addr = address(0);\r\n    }\r\n\r\n    function approveOwner() public onlyRole(OWNER){\r\n        owner.approval = true;\r\n        IERC20 stakeholder = IERC20(owner.stakeholderAddress);\r\n        stakeholder.approve(address(this), owner.percentage);\r\n    }\r\n\r\n    function approveBuyer(uint _price) public payable onlyRole(BUYER){\r\n        require(owner.approval, \"Tapu sahibi onayi gerekiyor.\");\r\n        buyer.paymentAmount = _price;\r\n        buyer.approval = true;\r\n        execute();\r\n    }\r\n\r\n    function execute() public \r\n    { \r\n        require(owner.approval,\"Tapu sahibi onayi gerekiyor.\");\r\n        require(buyer.approval,\"Alici onayi gerekiyor.\");\r\n        require(buyer.paymentAmount >= deedPrice, \"Alicinin yetkilendirdigi para tutari yeterli degildir.\");\r\n        IERC20 stakeholder = IERC20(owner.stakeholderAddress);\r\n        stakeholder.transferFrom(owner.addr, buyer.addr, 1); \r\n\r\n//        IERC20 stakeholder = IERC20(owner.stakeholderAddress);\r\n//        stakeholder.transferFrom(owner.addr, buyer.addr, 1); \r\n\r\n    }\r\n\r\n\r\n    function getAddress() public view returns(address){\r\n        return owner.stakeholderAddress;\r\n        \r\n    }\r\n\r\n\r\n}",
  "sourcePath": "C:\\Users\\batuh\\Desktop\\okul\\nodejs\\react_ogrenme\\edevlet\\contracts\\Sale.sol",
  "compiler": {
    "name": "solc",
    "version": "0.8.3+commit.8d00100c.Emscripten.clang"
  },
  "schemaVersion": "3.4.10",
  "updatedAt": "2022-11-12T19:54:48.140Z",
  "devdoc": {
    "kind": "dev",
    "methods": {
      "getRoleAdmin(bytes32)": {
        "details": "Returns the admin role that controls `role`. See {grantRole} and {revokeRole}. To change a role's admin, use {_setRoleAdmin}."
      },
      "grantRole(bytes32,address)": {
        "details": "Grants `role` to `account`. If `account` had not been already granted `role`, emits a {RoleGranted} event. Requirements: - the caller must have ``role``'s admin role. May emit a {RoleGranted} event."
      },
      "hasRole(bytes32,address)": {
        "details": "Returns `true` if `account` has been granted `role`."
      },
      "renounceRole(bytes32,address)": {
        "details": "Revokes `role` from the calling account. Roles are often managed via {grantRole} and {revokeRole}: this function's purpose is to provide a mechanism for accounts to lose their privileges if they are compromised (such as when a trusted device is misplaced). If the calling account had been revoked `role`, emits a {RoleRevoked} event. Requirements: - the caller must be `account`. May emit a {RoleRevoked} event."
      },
      "revokeRole(bytes32,address)": {
        "details": "Revokes `role` from `account`. If `account` had been granted `role`, emits a {RoleRevoked} event. Requirements: - the caller must have ``role``'s admin role. May emit a {RoleRevoked} event."
      },
      "supportsInterface(bytes4)": {
        "details": "See {IERC165-supportsInterface}."
      }
    },
    "version": 1
  },
  "userdoc": {
    "kind": "user",
    "methods": {},
    "version": 1
  }
}