{
  "contractName": "StakeHolder",
  "abi": [
    {
      "inputs": [],
      "stateMutability": "nonpayable",
      "type": "constructor"
    },
    {
      "anonymous": false,
      "inputs": [
        {
          "indexed": true,
          "internalType": "address",
          "name": "owner",
          "type": "address"
        },
        {
          "indexed": true,
          "internalType": "address",
          "name": "spender",
          "type": "address"
        },
        {
          "indexed": false,
          "internalType": "uint256",
          "name": "value",
          "type": "uint256"
        }
      ],
      "name": "Approval",
      "type": "event"
    },
    {
      "anonymous": false,
      "inputs": [
        {
          "indexed": true,
          "internalType": "address",
          "name": "from",
          "type": "address"
        },
        {
          "indexed": true,
          "internalType": "address",
          "name": "to",
          "type": "address"
        },
        {
          "indexed": false,
          "internalType": "uint256",
          "name": "value",
          "type": "uint256"
        }
      ],
      "name": "Transfer",
      "type": "event"
    },
    {
      "inputs": [],
      "name": "DOMAIN_SEPARATOR",
      "outputs": [
        {
          "internalType": "bytes32",
          "name": "",
          "type": "bytes32"
        }
      ],
      "stateMutability": "view",
      "type": "function"
    },
    {
      "inputs": [
        {
          "internalType": "address",
          "name": "owner",
          "type": "address"
        },
        {
          "internalType": "address",
          "name": "spender",
          "type": "address"
        }
      ],
      "name": "allowance",
      "outputs": [
        {
          "internalType": "uint256",
          "name": "",
          "type": "uint256"
        }
      ],
      "stateMutability": "view",
      "type": "function"
    },
    {
      "inputs": [
        {
          "internalType": "address",
          "name": "spender",
          "type": "address"
        },
        {
          "internalType": "uint256",
          "name": "amount",
          "type": "uint256"
        }
      ],
      "name": "approve",
      "outputs": [
        {
          "internalType": "bool",
          "name": "",
          "type": "bool"
        }
      ],
      "stateMutability": "nonpayable",
      "type": "function"
    },
    {
      "inputs": [
        {
          "internalType": "address",
          "name": "account",
          "type": "address"
        }
      ],
      "name": "balanceOf",
      "outputs": [
        {
          "internalType": "uint256",
          "name": "",
          "type": "uint256"
        }
      ],
      "stateMutability": "view",
      "type": "function"
    },
    {
      "inputs": [],
      "name": "collection",
      "outputs": [
        {
          "internalType": "contract IERC721",
          "name": "",
          "type": "address"
        }
      ],
      "stateMutability": "view",
      "type": "function"
    },
    {
      "inputs": [],
      "name": "decimals",
      "outputs": [
        {
          "internalType": "uint8",
          "name": "",
          "type": "uint8"
        }
      ],
      "stateMutability": "view",
      "type": "function"
    },
    {
      "inputs": [
        {
          "internalType": "address",
          "name": "spender",
          "type": "address"
        },
        {
          "internalType": "uint256",
          "name": "subtractedValue",
          "type": "uint256"
        }
      ],
      "name": "decreaseAllowance",
      "outputs": [
        {
          "internalType": "bool",
          "name": "",
          "type": "bool"
        }
      ],
      "stateMutability": "nonpayable",
      "type": "function"
    },
    {
      "inputs": [
        {
          "internalType": "address",
          "name": "spender",
          "type": "address"
        },
        {
          "internalType": "uint256",
          "name": "addedValue",
          "type": "uint256"
        }
      ],
      "name": "increaseAllowance",
      "outputs": [
        {
          "internalType": "bool",
          "name": "",
          "type": "bool"
        }
      ],
      "stateMutability": "nonpayable",
      "type": "function"
    },
    {
      "inputs": [],
      "name": "name",
      "outputs": [
        {
          "internalType": "string",
          "name": "",
          "type": "string"
        }
      ],
      "stateMutability": "view",
      "type": "function"
    },
    {
      "inputs": [
        {
          "internalType": "address",
          "name": "owner",
          "type": "address"
        }
      ],
      "name": "nonces",
      "outputs": [
        {
          "internalType": "uint256",
          "name": "",
          "type": "uint256"
        }
      ],
      "stateMutability": "view",
      "type": "function"
    },
    {
      "inputs": [
        {
          "internalType": "address",
          "name": "",
          "type": "address"
        },
        {
          "internalType": "address",
          "name": "",
          "type": "address"
        },
        {
          "internalType": "uint256",
          "name": "",
          "type": "uint256"
        },
        {
          "internalType": "bytes",
          "name": "",
          "type": "bytes"
        }
      ],
      "name": "onERC721Received",
      "outputs": [
        {
          "internalType": "bytes4",
          "name": "",
          "type": "bytes4"
        }
      ],
      "stateMutability": "nonpayable",
      "type": "function"
    },
    {
      "inputs": [
        {
          "internalType": "address",
          "name": "owner",
          "type": "address"
        },
        {
          "internalType": "address",
          "name": "spender",
          "type": "address"
        },
        {
          "internalType": "uint256",
          "name": "value",
          "type": "uint256"
        },
        {
          "internalType": "uint256",
          "name": "deadline",
          "type": "uint256"
        },
        {
          "internalType": "uint8",
          "name": "v",
          "type": "uint8"
        },
        {
          "internalType": "bytes32",
          "name": "r",
          "type": "bytes32"
        },
        {
          "internalType": "bytes32",
          "name": "s",
          "type": "bytes32"
        }
      ],
      "name": "permit",
      "outputs": [],
      "stateMutability": "nonpayable",
      "type": "function"
    },
    {
      "inputs": [],
      "name": "symbol",
      "outputs": [
        {
          "internalType": "string",
          "name": "",
          "type": "string"
        }
      ],
      "stateMutability": "view",
      "type": "function"
    },
    {
      "inputs": [],
      "name": "totalSupply",
      "outputs": [
        {
          "internalType": "uint256",
          "name": "",
          "type": "uint256"
        }
      ],
      "stateMutability": "view",
      "type": "function"
    },
    {
      "inputs": [
        {
          "internalType": "address",
          "name": "to",
          "type": "address"
        },
        {
          "internalType": "uint256",
          "name": "amount",
          "type": "uint256"
        }
      ],
      "name": "transfer",
      "outputs": [
        {
          "internalType": "bool",
          "name": "",
          "type": "bool"
        }
      ],
      "stateMutability": "nonpayable",
      "type": "function"
    },
    {
      "inputs": [
        {
          "internalType": "address",
          "name": "from",
          "type": "address"
        },
        {
          "internalType": "address",
          "name": "to",
          "type": "address"
        },
        {
          "internalType": "uint256",
          "name": "amount",
          "type": "uint256"
        }
      ],
      "name": "transferFrom",
      "outputs": [
        {
          "internalType": "bool",
          "name": "",
          "type": "bool"
        }
      ],
      "stateMutability": "nonpayable",
      "type": "function"
    },
    {
      "inputs": [
        {
          "internalType": "address",
          "name": "_collection",
          "type": "address"
        },
        {
          "internalType": "uint256",
          "name": "_tokenId",
          "type": "uint256"
        }
      ],
      "name": "init",
      "outputs": [],
      "stateMutability": "nonpayable",
      "type": "function"
    }
  ],
  "bytecode": "0x6101406040526000600860006101000a81548160ff0219169083151502179055503480156200002d57600080fd5b506040518060400160405280600b81526020017f5374616b65686f6c646572000000000000000000000000000000000000000000815250806040518060400160405280600181526020017f31000000000000000000000000000000000000000000000000000000000000008152506040518060400160405280600b81526020017f5374616b65686f6c6465720000000000000000000000000000000000000000008152506040518060400160405280600281526020017f534800000000000000000000000000000000000000000000000000000000000081525081600390805190602001906200011f92919062000233565b5080600490805190602001906200013892919062000233565b50505060008280519060200120905060008280519060200120905060007f8b73c3c69bb8fe3d512ecc4cf759cc79239f7b179b0ffacaa9a75d522b39400f90508260e081815250508161010081815250504660a08181525050620001a4818484620001f760201b60201c565b608081815250503073ffffffffffffffffffffffffffffffffffffffff1660c08173ffffffffffffffffffffffffffffffffffffffff1660601b8152505080610120818152505050505050505062000420565b600083838346306040516020016200021495949392919062000316565b6040516020818303038152906040528051906020012090509392505050565b8280546200024190620003bb565b90600052602060002090601f016020900481019282620002655760008555620002b1565b82601f106200028057805160ff1916838001178555620002b1565b82800160010185558215620002b1579182015b82811115620002b057825182559160200191906001019062000293565b5b509050620002c09190620002c4565b5090565b5b80821115620002df576000816000905550600101620002c5565b5090565b620002ee8162000373565b82525050565b620002ff8162000387565b82525050565b6200031081620003b1565b82525050565b600060a0820190506200032d6000830188620002f4565b6200033c6020830187620002f4565b6200034b6040830186620002f4565b6200035a606083018562000305565b620003696080830184620002e3565b9695505050505050565b6000620003808262000391565b9050919050565b6000819050919050565b600073ffffffffffffffffffffffffffffffffffffffff82169050919050565b6000819050919050565b60006002820490506001821680620003d457607f821691505b60208210811415620003eb57620003ea620003f1565b5b50919050565b7f4e487b7100000000000000000000000000000000000000000000000000000000600052602260045260246000fd5b60805160a05160c05160601c60e05161010051610120516125b0620004736000396000610f5201526000610f9401526000610f7301526000610ea801526000610efe01526000610f2701526125b06000f3fe608060405234801561001057600080fd5b506004361061010b5760003560e01c8063399ae724116100a257806395d89b411161007157806395d89b41146102e2578063a457c2d714610300578063a9059cbb14610330578063d505accf14610360578063dd62ed3e1461037c5761010b565b8063399ae7241461024857806370a08231146102645780637de1e536146102945780637ecebe00146102b25761010b565b806323b872dd116100de57806323b872dd146101ac578063313ce567146101dc5780633644e515146101fa57806339509351146102185761010b565b806306fdde0314610110578063095ea7b31461012e578063150b7a021461015e57806318160ddd1461018e575b600080fd5b6101186103ac565b6040516101259190611d0f565b60405180910390f35b6101486004803603810190610143919061185d565b61043e565b6040516101559190611baa565b60405180910390f35b61017860048036038101906101739190611744565b610461565b6040516101859190611cd9565b60405180910390f35b610196610475565b6040516101a39190611ed1565b60405180910390f35b6101c660048036038101906101c191906116f5565b61047f565b6040516101d39190611baa565b60405180910390f35b6101e46104ae565b6040516101f19190611eec565b60405180910390f35b6102026104b7565b60405161020f9190611bc5565b60405180910390f35b610232600480360381019061022d919061185d565b6104c6565b60405161023f9190611baa565b60405180910390f35b610262600480360381019061025d919061185d565b6104fd565b005b61027e60048036038101906102799190611690565b61061a565b60405161028b9190611ed1565b60405180910390f35b61029c610662565b6040516102a99190611cf4565b60405180910390f35b6102cc60048036038101906102c79190611690565b610688565b6040516102d99190611ed1565b60405180910390f35b6102ea6106d8565b6040516102f79190611d0f565b60405180910390f35b61031a6004803603810190610315919061185d565b61076a565b6040516103279190611baa565b60405180910390f35b61034a6004803603810190610345919061185d565b6107e1565b6040516103579190611baa565b60405180910390f35b61037a600480360381019061037591906117bf565b610804565b005b610396600480360381019061039191906116b9565b610946565b6040516103a39190611ed1565b60405180910390f35b6060600380546103bb906120cb565b80601f01602080910402602001604051908101604052809291908181526020018280546103e7906120cb565b80156104345780601f1061040957610100808354040283529160200191610434565b820191906000526020600020905b81548152906001019060200180831161041757829003601f168201915b5050505050905090565b6000806104496109cd565b90506104568185856109d5565b600191505092915050565b600063150b7a0260e01b9050949350505050565b6000600254905090565b60008061048a6109cd565b9050610497858285610ba0565b6104a2858585610c2c565b60019150509392505050565b60006012905090565b60006104c1610ea4565b905090565b6000806104d16109cd565b90506104f28185856104e38589610946565b6104ed9190611f84565b6109d5565b600191505092915050565b600860009054906101000a900460ff161561051757600080fd5b81600860016101000a81548173ffffffffffffffffffffffffffffffffffffffff021916908373ffffffffffffffffffffffffffffffffffffffff160217905550600860019054906101000a900473ffffffffffffffffffffffffffffffffffffffff1673ffffffffffffffffffffffffffffffffffffffff166342842e0e3330846040518463ffffffff1660e01b81526004016105b793929190611b73565b600060405180830381600087803b1580156105d157600080fd5b505af11580156105e5573d6000803e3d6000fd5b50505050806007819055506105fb336064610fbe565b6001600860006101000a81548160ff0219169083151502179055505050565b60008060008373ffffffffffffffffffffffffffffffffffffffff1673ffffffffffffffffffffffffffffffffffffffff168152602001908152602001600020549050919050565b600860019054906101000a900473ffffffffffffffffffffffffffffffffffffffff1681565b60006106d1600560008473ffffffffffffffffffffffffffffffffffffffff1673ffffffffffffffffffffffffffffffffffffffff168152602001908152602001600020611115565b9050919050565b6060600480546106e7906120cb565b80601f0160208091040260200160405190810160405280929190818152602001828054610713906120cb565b80156107605780601f1061073557610100808354040283529160200191610760565b820191906000526020600020905b81548152906001019060200180831161074357829003601f168201915b5050505050905090565b6000806107756109cd565b905060006107838286610946565b9050838110156107c8576040517f08c379a00000000000000000000000000000000000000000000000000000000081526004016107bf90611e91565b60405180910390fd5b6107d582868684036109d5565b60019250505092915050565b6000806107ec6109cd565b90506107f9818585610c2c565b600191505092915050565b83421115610847576040517f08c379a000000000000000000000000000000000000000000000000000000000815260040161083e90611dd1565b60405180910390fd5b60007f6e71edae12b1b97f4d1f60370fef10105fa2faae0126114a169c64845d6126c98888886108768c611123565b8960405160200161088c96959493929190611be0565b60405160208183030381529060405280519060200120905060006108af82611181565b905060006108bf8287878761119b565b90508973ffffffffffffffffffffffffffffffffffffffff168173ffffffffffffffffffffffffffffffffffffffff161461092f576040517f08c379a000000000000000000000000000000000000000000000000000000000815260040161092690611e31565b60405180910390fd5b61093a8a8a8a6109d5565b50505050505050505050565b6000600160008473ffffffffffffffffffffffffffffffffffffffff1673ffffffffffffffffffffffffffffffffffffffff16815260200190815260200160002060008373ffffffffffffffffffffffffffffffffffffffff1673ffffffffffffffffffffffffffffffffffffffff16815260200190815260200160002054905092915050565b600033905090565b600073ffffffffffffffffffffffffffffffffffffffff168373ffffffffffffffffffffffffffffffffffffffff161415610a45576040517f08c379a0000000000000000000000000000000000000000000000000000000008152600401610a3c90611e71565b60405180910390fd5b600073ffffffffffffffffffffffffffffffffffffffff168273ffffffffffffffffffffffffffffffffffffffff161415610ab5576040517f08c379a0000000000000000000000000000000000000000000000000000000008152600401610aac90611d91565b60405180910390fd5b80600160008573ffffffffffffffffffffffffffffffffffffffff1673ffffffffffffffffffffffffffffffffffffffff16815260200190815260200160002060008473ffffffffffffffffffffffffffffffffffffffff1673ffffffffffffffffffffffffffffffffffffffff168152602001908152602001600020819055508173ffffffffffffffffffffffffffffffffffffffff168373ffffffffffffffffffffffffffffffffffffffff167f8c5be1e5ebec7d5bd14f71427d1e84f3dd0314c0f7b2291e5b200ac8c7c3b92583604051610b939190611ed1565b60405180910390a3505050565b6000610bac8484610946565b90507fffffffffffffffffffffffffffffffffffffffffffffffffffffffffffffffff8114610c265781811015610c18576040517f08c379a0000000000000000000000000000000000000000000000000000000008152600401610c0f90611db1565b60405180910390fd5b610c2584848484036109d5565b5b50505050565b600073ffffffffffffffffffffffffffffffffffffffff168373ffffffffffffffffffffffffffffffffffffffff161415610c9c576040517f08c379a0000000000000000000000000000000000000000000000000000000008152600401610c9390611e51565b60405180910390fd5b600073ffffffffffffffffffffffffffffffffffffffff168273ffffffffffffffffffffffffffffffffffffffff161415610d0c576040517f08c379a0000000000000000000000000000000000000000000000000000000008152600401610d0390611d51565b60405180910390fd5b610d178383836111c6565b60008060008573ffffffffffffffffffffffffffffffffffffffff1673ffffffffffffffffffffffffffffffffffffffff16815260200190815260200160002054905081811015610d9d576040517f08c379a0000000000000000000000000000000000000000000000000000000008152600401610d9490611df1565b60405180910390fd5b8181036000808673ffffffffffffffffffffffffffffffffffffffff1673ffffffffffffffffffffffffffffffffffffffff16815260200190815260200160002081905550816000808573ffffffffffffffffffffffffffffffffffffffff1673ffffffffffffffffffffffffffffffffffffffff168152602001908152602001600020600082825401925050819055508273ffffffffffffffffffffffffffffffffffffffff168473ffffffffffffffffffffffffffffffffffffffff167fddf252ad1be2c89b69c2b068fc378daa952ba7f163c4a11628f55a4df523b3ef84604051610e8b9190611ed1565b60405180910390a3610e9e8484846111cb565b50505050565b60007f000000000000000000000000000000000000000000000000000000000000000073ffffffffffffffffffffffffffffffffffffffff163073ffffffffffffffffffffffffffffffffffffffff16148015610f2057507f000000000000000000000000000000000000000000000000000000000000000046145b15610f4d577f00000000000000000000000000000000000000000000000000000000000000009050610fbb565b610fb87f00000000000000000000000000000000000000000000000000000000000000007f00000000000000000000000000000000000000000000000000000000000000007f00000000000000000000000000000000000000000000000000000000000000006111d0565b90505b90565b600073ffffffffffffffffffffffffffffffffffffffff168273ffffffffffffffffffffffffffffffffffffffff16141561102e576040517f08c379a000000000000000000000000000000000000000000000000000000000815260040161102590611eb1565b60405180910390fd5b61103a600083836111c6565b806002600082825461104c9190611f84565b92505081905550806000808473ffffffffffffffffffffffffffffffffffffffff1673ffffffffffffffffffffffffffffffffffffffff168152602001908152602001600020600082825401925050819055508173ffffffffffffffffffffffffffffffffffffffff16600073ffffffffffffffffffffffffffffffffffffffff167fddf252ad1be2c89b69c2b068fc378daa952ba7f163c4a11628f55a4df523b3ef836040516110fd9190611ed1565b60405180910390a3611111600083836111cb565b5050565b600081600001549050919050565b600080600560008473ffffffffffffffffffffffffffffffffffffffff1673ffffffffffffffffffffffffffffffffffffffff168152602001908152602001600020905061117081611115565b915061117b8161120a565b50919050565b600061119461118e610ea4565b83611220565b9050919050565b60008060006111ac87878787611253565b915091506111b981611336565b8192505050949350505050565b505050565b505050565b600083838346306040516020016111eb959493929190611c41565b6040516020818303038152906040528051906020012090509392505050565b6001816000016000828254019250508190555050565b60008282604051602001611235929190611b3c565b60405160208183030381529060405280519060200120905092915050565b6000807f7fffffffffffffffffffffffffffffff5d576e7357a4501ddfe92f46681b20a08360001c111561128e57600060039150915061132d565b6000600187878787604051600081526020016040526040516112b39493929190611c94565b6020604051602081039080840390855afa1580156112d5573d6000803e3d6000fd5b505050602060405103519050600073ffffffffffffffffffffffffffffffffffffffff168173ffffffffffffffffffffffffffffffffffffffff1614156113245760006001925092505061132d565b80600092509250505b94509492505050565b60006004811115611370577f4e487b7100000000000000000000000000000000000000000000000000000000600052602160045260246000fd5b8160048111156113a9577f4e487b7100000000000000000000000000000000000000000000000000000000600052602160045260246000fd5b14156113b4576115d1565b600160048111156113ee577f4e487b7100000000000000000000000000000000000000000000000000000000600052602160045260246000fd5b816004811115611427577f4e487b7100000000000000000000000000000000000000000000000000000000600052602160045260246000fd5b1415611468576040517f08c379a000000000000000000000000000000000000000000000000000000000815260040161145f90611d31565b60405180910390fd5b600260048111156114a2577f4e487b7100000000000000000000000000000000000000000000000000000000600052602160045260246000fd5b8160048111156114db577f4e487b7100000000000000000000000000000000000000000000000000000000600052602160045260246000fd5b141561151c576040517f08c379a000000000000000000000000000000000000000000000000000000000815260040161151390611d71565b60405180910390fd5b60036004811115611556577f4e487b7100000000000000000000000000000000000000000000000000000000600052602160045260246000fd5b81600481111561158f577f4e487b7100000000000000000000000000000000000000000000000000000000600052602160045260246000fd5b14156115d0576040517f08c379a00000000000000000000000000000000000000000000000000000000081526004016115c790611e11565b60405180910390fd5b5b50565b60006115e76115e284611f2c565b611f07565b9050828152602081018484840111156115ff57600080fd5b61160a848285612089565b509392505050565b6000813590506116218161251e565b92915050565b60008135905061163681612535565b92915050565b600082601f83011261164d57600080fd5b813561165d8482602086016115d4565b91505092915050565b6000813590506116758161254c565b92915050565b60008135905061168a81612563565b92915050565b6000602082840312156116a257600080fd5b60006116b084828501611612565b91505092915050565b600080604083850312156116cc57600080fd5b60006116da85828601611612565b92505060206116eb85828601611612565b9150509250929050565b60008060006060848603121561170a57600080fd5b600061171886828701611612565b935050602061172986828701611612565b925050604061173a86828701611666565b9150509250925092565b6000806000806080858703121561175a57600080fd5b600061176887828801611612565b945050602061177987828801611612565b935050604061178a87828801611666565b925050606085013567ffffffffffffffff8111156117a757600080fd5b6117b38782880161163c565b91505092959194509250565b600080600080600080600060e0888a0312156117da57600080fd5b60006117e88a828b01611612565b97505060206117f98a828b01611612565b965050604061180a8a828b01611666565b955050606061181b8a828b01611666565b945050608061182c8a828b0161167b565b93505060a061183d8a828b01611627565b92505060c061184e8a828b01611627565b91505092959891949750929550565b6000806040838503121561187057600080fd5b600061187e85828601611612565b925050602061188f85828601611666565b9150509250929050565b6118a281611fda565b82525050565b6118b181611fec565b82525050565b6118c081611ff8565b82525050565b6118d76118d282611ff8565b61212e565b82525050565b6118e681612002565b82525050565b6118f581612065565b82525050565b600061190682611f5d565b6119108185611f68565b9350611920818560208601612098565b611929816121c5565b840191505092915050565b6000611941601883611f68565b915061194c826121d6565b602082019050919050565b6000611964602383611f68565b915061196f826121ff565b604082019050919050565b6000611987601f83611f68565b91506119928261224e565b602082019050919050565b60006119aa602283611f68565b91506119b582612277565b604082019050919050565b60006119cd600283611f79565b91506119d8826122c6565b600282019050919050565b60006119f0601d83611f68565b91506119fb826122ef565b602082019050919050565b6000611a13601d83611f68565b9150611a1e82612318565b602082019050919050565b6000611a36602683611f68565b9150611a4182612341565b604082019050919050565b6000611a59602283611f68565b9150611a6482612390565b604082019050919050565b6000611a7c601e83611f68565b9150611a87826123df565b602082019050919050565b6000611a9f602583611f68565b9150611aaa82612408565b604082019050919050565b6000611ac2602483611f68565b9150611acd82612457565b604082019050919050565b6000611ae5602583611f68565b9150611af0826124a6565b604082019050919050565b6000611b08601f83611f68565b9150611b13826124f5565b602082019050919050565b611b278161204e565b82525050565b611b3681612058565b82525050565b6000611b47826119c0565b9150611b5382856118c6565b602082019150611b6382846118c6565b6020820191508190509392505050565b6000606082019050611b886000830186611899565b611b956020830185611899565b611ba26040830184611b1e565b949350505050565b6000602082019050611bbf60008301846118a8565b92915050565b6000602082019050611bda60008301846118b7565b92915050565b600060c082019050611bf560008301896118b7565b611c026020830188611899565b611c0f6040830187611899565b611c1c6060830186611b1e565b611c296080830185611b1e565b611c3660a0830184611b1e565b979650505050505050565b600060a082019050611c5660008301886118b7565b611c6360208301876118b7565b611c7060408301866118b7565b611c7d6060830185611b1e565b611c8a6080830184611899565b9695505050505050565b6000608082019050611ca960008301876118b7565b611cb66020830186611b2d565b611cc360408301856118b7565b611cd060608301846118b7565b95945050505050565b6000602082019050611cee60008301846118dd565b92915050565b6000602082019050611d0960008301846118ec565b92915050565b60006020820190508181036000830152611d2981846118fb565b905092915050565b60006020820190508181036000830152611d4a81611934565b9050919050565b60006020820190508181036000830152611d6a81611957565b9050919050565b60006020820190508181036000830152611d8a8161197a565b9050919050565b60006020820190508181036000830152611daa8161199d565b9050919050565b60006020820190508181036000830152611dca816119e3565b9050919050565b60006020820190508181036000830152611dea81611a06565b9050919050565b60006020820190508181036000830152611e0a81611a29565b9050919050565b60006020820190508181036000830152611e2a81611a4c565b9050919050565b60006020820190508181036000830152611e4a81611a6f565b9050919050565b60006020820190508181036000830152611e6a81611a92565b9050919050565b60006020820190508181036000830152611e8a81611ab5565b9050919050565b60006020820190508181036000830152611eaa81611ad8565b9050919050565b60006020820190508181036000830152611eca81611afb565b9050919050565b6000602082019050611ee66000830184611b1e565b92915050565b6000602082019050611f016000830184611b2d565b92915050565b6000611f11611f22565b9050611f1d82826120fd565b919050565b6000604051905090565b600067ffffffffffffffff821115611f4757611f46612196565b5b611f50826121c5565b9050602081019050919050565b600081519050919050565b600082825260208201905092915050565b600081905092915050565b6000611f8f8261204e565b9150611f9a8361204e565b9250827fffffffffffffffffffffffffffffffffffffffffffffffffffffffffffffffff03821115611fcf57611fce612138565b5b828201905092915050565b6000611fe58261202e565b9050919050565b60008115159050919050565b6000819050919050565b60007fffffffff0000000000000000000000000000000000000000000000000000000082169050919050565b600073ffffffffffffffffffffffffffffffffffffffff82169050919050565b6000819050919050565b600060ff82169050919050565b600061207082612077565b9050919050565b60006120828261202e565b9050919050565b82818337600083830152505050565b60005b838110156120b657808201518184015260208101905061209b565b838111156120c5576000848401525b50505050565b600060028204905060018216806120e357607f821691505b602082108114156120f7576120f6612167565b5b50919050565b612106826121c5565b810181811067ffffffffffffffff8211171561212557612124612196565b5b80604052505050565b6000819050919050565b7f4e487b7100000000000000000000000000000000000000000000000000000000600052601160045260246000fd5b7f4e487b7100000000000000000000000000000000000000000000000000000000600052602260045260246000fd5b7f4e487b7100000000000000000000000000000000000000000000000000000000600052604160045260246000fd5b6000601f19601f8301169050919050565b7f45434453413a20696e76616c6964207369676e61747572650000000000000000600082015250565b7f45524332303a207472616e7366657220746f20746865207a65726f206164647260008201527f6573730000000000000000000000000000000000000000000000000000000000602082015250565b7f45434453413a20696e76616c6964207369676e6174757265206c656e67746800600082015250565b7f45524332303a20617070726f766520746f20746865207a65726f20616464726560008201527f7373000000000000000000000000000000000000000000000000000000000000602082015250565b7f1901000000000000000000000000000000000000000000000000000000000000600082015250565b7f45524332303a20696e73756666696369656e7420616c6c6f77616e6365000000600082015250565b7f45524332305065726d69743a206578706972656420646561646c696e65000000600082015250565b7f45524332303a207472616e7366657220616d6f756e742065786365656473206260008201527f616c616e63650000000000000000000000000000000000000000000000000000602082015250565b7f45434453413a20696e76616c6964207369676e6174757265202773272076616c60008201527f7565000000000000000000000000000000000000000000000000000000000000602082015250565b7f45524332305065726d69743a20696e76616c6964207369676e61747572650000600082015250565b7f45524332303a207472616e736665722066726f6d20746865207a65726f20616460008201527f6472657373000000000000000000000000000000000000000000000000000000602082015250565b7f45524332303a20617070726f76652066726f6d20746865207a65726f2061646460008201527f7265737300000000000000000000000000000000000000000000000000000000602082015250565b7f45524332303a2064656372656173656420616c6c6f77616e63652062656c6f7760008201527f207a65726f000000000000000000000000000000000000000000000000000000602082015250565b7f45524332303a206d696e7420746f20746865207a65726f206164647265737300600082015250565b61252781611fda565b811461253257600080fd5b50565b61253e81611ff8565b811461254957600080fd5b50565b6125558161204e565b811461256057600080fd5b50565b61256c81612058565b811461257757600080fd5b5056fea2646970667358221220d5a408149b3cec75838e3da2909aa8e42e39d02e8ef66c8c46435786e796258964736f6c63430008030033",
  "immutableReferences": {
    "3530": [
      {
        "length": 32,
        "start": 3879
      }
    ],
    "3532": [
      {
        "length": 32,
        "start": 3838
      }
    ],
    "3534": [
      {
        "length": 32,
        "start": 3752
      }
    ],
    "3536": [
      {
        "length": 32,
        "start": 3955
      }
    ],
    "3538": [
      {
        "length": 32,
        "start": 3988
      }
    ],
    "3540": [
      {
        "length": 32,
        "start": 3922
      }
    ]
  },
  "source": "pragma solidity ^0.8.3;\r\n\r\n\r\nimport \"@openzeppelin/contracts/token/ERC721/ERC721.sol\";\r\nimport \"@openzeppelin/contracts/access/Ownable.sol\";\r\nimport \"@openzeppelin/contracts/token/ERC721/extensions/ERC721Burnable.sol\";\r\nimport \"@openzeppelin/contracts/utils/Counters.sol\";\r\nimport \"@openzeppelin/contracts/token/ERC20/ERC20.sol\";\r\nimport \"@openzeppelin/contracts/token/ERC20/IERC20.sol\";\r\nimport \"@openzeppelin/contracts/access/Ownable.sol\";\r\nimport \"@openzeppelin/contracts/token/ERC20/extensions/draft-ERC20Permit.sol\";\r\nimport \"@openzeppelin/contracts/token/ERC721/IERC721.sol\";\r\nimport \"@openzeppelin/contracts/token/ERC721/utils/ERC721Holder.sol\";\r\nimport \"@openzeppelin/contracts/access/AccessControl.sol\";\r\n\r\n\r\ncontract StakeHolder is ERC20, ERC20Permit, ERC721Holder{\r\n\r\n    uint256 tokenId;\r\n    bool isInitilized = false;\r\n    IERC721 public collection;\r\n\r\n    constructor() ERC20(\"Stakeholder\", \"SH\") ERC20Permit(\"Stakeholder\"){\r\n\r\n    }\r\n\r\n    function init(address _collection, uint _tokenId) public {\r\n        require(!isInitilized);\r\n        collection = IERC721(_collection);\r\n        collection.safeTransferFrom(msg.sender, address(this), _tokenId);\r\n        tokenId = _tokenId;\r\n        _mint(msg.sender, 100);\r\n        isInitilized = true;\r\n    }\r\n}",
  "sourcePath": "C:\\Users\\batuh\\Desktop\\okul\\nodejs\\react_ogrenme\\edevlet\\contracts\\StakeHolder.sol",
  "compiler": {
    "name": "solc",
    "version": "0.8.3+commit.8d00100c.Emscripten.clang"
  },
  "schemaVersion": "3.4.10",
  "updatedAt": "2022-11-12T22:03:12.018Z",
  "devdoc": {
    "kind": "dev",
    "methods": {
      "DOMAIN_SEPARATOR()": {
        "details": "See {IERC20Permit-DOMAIN_SEPARATOR}."
      },
      "allowance(address,address)": {
        "details": "See {IERC20-allowance}."
      },
      "approve(address,uint256)": {
        "details": "See {IERC20-approve}. NOTE: If `amount` is the maximum `uint256`, the allowance is not updated on `transferFrom`. This is semantically equivalent to an infinite approval. Requirements: - `spender` cannot be the zero address."
      },
      "balanceOf(address)": {
        "details": "See {IERC20-balanceOf}."
      },
      "decimals()": {
        "details": "Returns the number of decimals used to get its user representation. For example, if `decimals` equals `2`, a balance of `505` tokens should be displayed to a user as `5.05` (`505 / 10 ** 2`). Tokens usually opt for a value of 18, imitating the relationship between Ether and Wei. This is the value {ERC20} uses, unless this function is overridden; NOTE: This information is only used for _display_ purposes: it in no way affects any of the arithmetic of the contract, including {IERC20-balanceOf} and {IERC20-transfer}."
      },
      "decreaseAllowance(address,uint256)": {
        "details": "Atomically decreases the allowance granted to `spender` by the caller. This is an alternative to {approve} that can be used as a mitigation for problems described in {IERC20-approve}. Emits an {Approval} event indicating the updated allowance. Requirements: - `spender` cannot be the zero address. - `spender` must have allowance for the caller of at least `subtractedValue`."
      },
      "increaseAllowance(address,uint256)": {
        "details": "Atomically increases the allowance granted to `spender` by the caller. This is an alternative to {approve} that can be used as a mitigation for problems described in {IERC20-approve}. Emits an {Approval} event indicating the updated allowance. Requirements: - `spender` cannot be the zero address."
      },
      "name()": {
        "details": "Returns the name of the token."
      },
      "nonces(address)": {
        "details": "See {IERC20Permit-nonces}."
      },
      "onERC721Received(address,address,uint256,bytes)": {
        "details": "See {IERC721Receiver-onERC721Received}. Always returns `IERC721Receiver.onERC721Received.selector`."
      },
      "permit(address,address,uint256,uint256,uint8,bytes32,bytes32)": {
        "details": "See {IERC20Permit-permit}."
      },
      "symbol()": {
        "details": "Returns the symbol of the token, usually a shorter version of the name."
      },
      "totalSupply()": {
        "details": "See {IERC20-totalSupply}."
      },
      "transfer(address,uint256)": {
        "details": "See {IERC20-transfer}. Requirements: - `to` cannot be the zero address. - the caller must have a balance of at least `amount`."
      },
      "transferFrom(address,address,uint256)": {
        "details": "See {IERC20-transferFrom}. Emits an {Approval} event indicating the updated allowance. This is not required by the EIP. See the note at the beginning of {ERC20}. NOTE: Does not update the allowance if the current allowance is the maximum `uint256`. Requirements: - `from` and `to` cannot be the zero address. - `from` must have a balance of at least `amount`. - the caller must have allowance for ``from``'s tokens of at least `amount`."
      }
    },
    "version": 1
  },
  "userdoc": {
    "kind": "user",
    "methods": {},
    "version": 1
  }
}